:020000040800F2
:1000000000000120011A0008F7180008FF18000876
:10001000071900080F190008171900080000000050
:100020000000000000000000000000001F19000890
:100030002D190008000000003B19000849190008AC
:10004000511A0008511A0008511A0008511A0008E4
:10005000511A0008511A0008511A0008511A0008D4
:10006000511A0008511A0008511A0008511A0008C4
:10007000511A0008511A0008511A0008511A0008B4
:10008000511A0008511A0008511A0008511A0008A4
:10009000511A0008511A0008511A0008511A000894
:1000A000511A0008511A0008511A0008511A000884
:1000B000511A0008511A0008511A0008511A000874
:1000C000511A0008511A0008511A0008511A000864
:1000D000511A0008511A000859190008511A00084D
:1000E000511A0008511A0008511A0008511A000844
:1000F000511A0008511A0008511A0008511A000834
:10010000511A00080000000000000000511A000809
:10011000511A0008511A0008511A0008511A000813
:10012000511A0008511A0008511A0008511A000803
:10013000511A0008511A00080000000000000000D9
:10014000511A0008511A0008511A00080000000056
:10015000000000000000000000000000000000009F
:10016000511A0008511A0008511A0008511A0008C3
:10017000511A0008511A0008511A0008511A0008B3
:10018000511A0008511A0008000000000000000089
:04019000511A0008F8
:1001A00010B5054C237833B9044B13B10448AFF3B1
:1001B00000800123237010BD5400002000000000C7
:1001C000402B000808B5034B1BB103490348AFF3AC
:1001D000008008BD0000000058000020402B0008EF
:1001E00001F0FF01102A2BDB10F0070F08D010F8E8
:1001F000013B013A8B422DD010F0070F42B3F6D1EC
:10020000F0B441EA012141EA014122F007047FF004
:1002100000070023F0E80256083C85EA010586EA5B
:10022000010685FA47F5A3FA87F586FA47F6A5FA97
:1002300087F68EB9EED1F0BC01F0FF0102F00702A3
:1002400032B110F8013B013A83EA010313B1F8D14E
:100250000020704701387047002D06BF354603382F
:10026000073815F0010F07D1013015F4807F02BF68
:10027000013015F4C03F0130F0BC0138704700BFB9
:1002800080B400AF064BD3F88830054A43F47003BE
:10029000C2F8883000BFBD465DF8047B704700BFE0
:1002A00000ED00E080B483B000AF786039607A6818
:1002B0003B68B2FBF3F3074A013B5360054B002256
:1002C0009A60044B05221A6000BF0C37BD465DF8EA
:1002D000047B704710E000E080B582B000AF78602A
:1002E0004FF47A717868FFF7DDFF00BF0837BD462D
:1002F00080BD000080B483B000AF7860044A7B68A2
:10030000136000BF0C37BD465DF8047B704700BF2B
:100310000000002080B489B000AFF860B9607A6056
:10032000FB681A68BB687B617B6993FAA3F33B6146
:100330003B69B3FA83F3DBB25B00032101FA03F3F9
:10034000DB431A40BB68FB61FB6993FAA3F3BB6113
:10035000BB69B3FA83F3DBB25B00796801FA03F39C
:100360001A43FB681A6000BF2437BD465DF8047B62
:10037000704780B485B000AFF860B9607A60FB6800
:100380005A68BB68DB431A40BB68796801FB03F31A
:100390001A43FB685A6000BF1437BD465DF8047B02
:1003A000704780B489B000AFF860B9607A60FB68CC
:1003B0009A68BB687B617B6993FAA3F33B613B69F5
:1003C000B3FA83F3DBB25B00032101FA03F3DB43EF
:1003D0001A40BB68FB61FB6993FAA3F3BB61BB697D
:1003E000B3FA83F3DBB25B00796801FA03F31A43D3
:1003F000FB689A6000BF2437BD465DF8047B7047F8
:1004000080B489B000AFF860B9607A60FB68DA68E0
:10041000BB687B617B6993FAA3F33B613B69B3FAE9
:1004200083F3DBB25B00032101FA03F3DB431A40E1
:10043000BB68FB61FB6993FAA3F3BB61BB69B3FAC9
:1004400083F3DBB25B00796801FA03F31A43FB68BC
:10045000DA6000BF2437BD465DF8047B704780B486
:1004600089B000AFF860B9607A60FB681A6ABB684F
:100470007B617B6993FAA3F33B613B69B3FA83F336
:10048000DBB29B000F2101FA03F3DB431A40BB6888
:10049000FB61FB6993FAA3F3BB61BB69B3FA83F316
:1004A000DBB29B00796801FA03F31A43FB681A6216
:1004B00000BF2437BD465DF8047B704780B489B027
:1004C00000AFF860B9607A60FB685A6ABB681B0AC3
:1004D0007B617B6993FAA3F33B613B69B3FA83F3D6
:1004E000DBB29B000F2101FA03F3DB431A40BB6828
:1004F0001B0AFB61FB6993FAA3F3BB61BB69B3FA07
:1005000083F3DBB29B00796801FA03F31A43FB68BB
:100510005A6200BF2437BD465DF8047B704780B542
:1005200088B000AF786039603B681B687B617B698D
:1005300093FAA3F33B613B69B3FA83F3DBB2FB614C
:1005400051E03B681A680121FB6901FA03F313408B
:10055000BB61BB69002B43D03B685B68012B03D0B8
:100560003B685B68022B0ED13B689B681A46B969F1
:100570007868FFF716FF3B6819683B68DB681A4626
:100580007868FFF7F6FE3B681B691A46B969786818
:10059000FFF736FF3B685B68022B1AD1BB69FB6033
:1005A000FB6893FAA3F3BB60BB68B3FA83F3DBB2D7
:1005B000072B07D83B685B691A46B9697868FFF76B
:1005C0004EFF06E03B685B691A46B9697868FFF739
:1005D00075FF3B685B681A46B9697868FFF79AFE51
:1005E000FB690133FB613B681A68FB6922FA03F37C
:1005F000002BA6D1002318462037BD4680BD80B40D
:1006000083B000AF78607B681B6803F00103012BA7
:1006100001D1012300E0002318460C37BD465DF8E8
:10062000047B704780B483B000AF786039607B682A
:100630005B6823F440523B681A437B685A6000BFF2
:100640000C37BD465DF8047B704780B483B000AFC3
:10065000786039607B689B6823F440723B681A437A
:100660007B689A6000BF0C37BD465DF8047B70471D
:1006700080B487B000AFF860B9607A603B607B6897
:10068000B3F5004F1AD1BB685A003B685B081A44A7
:100690003B68B2FBF3F39BB27B617A694FF6F07370
:1006A00013403B617B695B089BB203F007033A6927
:1006B00013433B61FB683A69DA600AE03B685A0819
:1006C000BB681A443B68B2FBF3F39BB21A46FB6863
:1006D000DA6000BF1C37BD465DF8047B7047000040
:1006E00080B584B000AF786039600123FB730023CC
:1006F000BB607868FFF783FF0346002B5CD17B6803
:100700001A68304B13403A6851683A68D26811430E
:100710003A68126911433A6892690A431A437B683E
:100720001A603B689B6819467868FFF77BFF3B6857
:100730005B6919467868FFF788FF7B68224A934215
:1007400004D1002000F0FAF8B86024E07B681F4A6A
:10075000934204D1102000F0F1F8B8601BE07B68F0
:100760001B4A934204D1122000F0E8F8B86012E06E
:100770007B68184A934205D14FF4401000F09CF971
:10078000B86008E07B68144A934204D14FF44000FB
:1007900000F092F9B860BB68002B0DD03B681B6875
:1007A000002B09D00023FB733B689A693B681B68E8
:1007B000B9687868FFF75CFFFB7B18461037BD46C9
:1007C00080BD00BFF369FFEF0038014000440040E6
:1007D00000480040004C00400050004080B400AF92
:1007E000064B1B6803F00203022B0CBF01230023FE
:1007F000DBB21846BD465DF8047B7047001002402E
:1008000080B400AF064B1B6A03F00203022B0CBF3F
:1008100001230023DBB21846BD465DF8047B704718
:100820000010024080B400AF044B5B6803F00C037F
:100830001846BD465DF8047B704700BF00100240BB
:1008400080B400AF044B5B6803F0F0031846BD466C
:100850005DF8047B704700BF0010024080B400AF19
:10086000044B5B6803F4E0631846BD465DF8047B07
:10087000704700BF0010024080B400AF044B5B68BB
:1008800003F460531846BD465DF8047B704700BF13
:100890000010024080B483B000AF7860074B1A6B41
:1008A00003217B6801FA03F31A407B681B0613439C
:1008B00018460C37BD465DF8047B704700100240B7
:1008C00080B483B000AF7860064B1A6B7B681A4027
:1008D0007B681B0A134318460C37BD465DF8047B42
:1008E000704700BF0010024080B400AF044B5B684B
:1008F00003F4C0331846BD465DF8047B704700BF63
:100900000010024080B400AF044B5B6803F4701326
:100910001846BD465DF8047B704700BF00100240DA
:1009200080B400AF044BDB6A03F00F031846BD46EA
:100930005DF8047B704700BF0010024080B584B0B2
:1009400000AF78600023FB607B68002B30D17868B3
:10095000FFF7A0FF0346032B0AD0032B19D8012B66
:1009600002D0022B0CD014E000F032F9F8601FE046
:10097000FFF734FF0346002B17D0484BFB6014E011
:10098000FFF73EFF0346002B11D04FF40043FB60FE
:100990000DE000F01DF90346184600F03FF903464C
:1009A000184600F065F9F86002E000BF00E000BF03
:1009B0007B68102B34D17868FFF76CFF0346384A08
:1009C00093420DD0364A93421BD8364A934203D005
:1009D000354A93420CD014E000F0FAF8F8601FE0BA
:1009E000FFF7FCFE0346002B17D02C4BFB6014E0F6
:1009F000FFF706FF0346002B11D04FF40043FB60C6
:100A00000DE000F0E5F80346184600F007F903464C
:100A1000184600F019F9F86002E000BF00E000BFDE
:100A20007B68122B34D17868FFF734FF03461F4AE6
:100A300093420DD01D4A93421BD81D4A934203D0C6
:100A40001C4A93420CD014E000F0C2F8F8601FE09A
:100A5000FFF7C4FE0346002B17D0104BFB6014E0D9
:100A6000FFF7CEFE0346002B11D04FF40043FB608E
:100A70000DE000F0ADF80346184600F0CFF803464D
:100A8000184600F0E1F8F86002E000BF00E000BFA7
:100A9000FB6818461037BD4680BD00BF00127A00C3
:100AA00000000310000001100000021000000C12F2
:100AB000000004120000081280B584B000AF786016
:100AC0000023FB607B68B3F5401F34D17868FFF7E3
:100AD000F7FE0346374A93420DD0364A93421BD85D
:100AE000354A934203D0354A93420CD014E000F0CB
:100AF0006FF8F8601FE0FFF771FE0346002B17D078
:100B00002F4BFB6014E0FFF77BFE0346002B11D058
:100B10004FF40043FB600DE000F05AF8034618461E
:100B200000F07CF80346184600F08EF8F86002E00A
:100B300000BF00E000BF7B68B3F5400F34D1786898
:100B4000FFF7BEFE03461F4A93420DD01D4A934253
:100B50001BD81D4A934203D01C4A93420CD014E088
:100B600000F036F8F8601FE0FFF738FE0346002B70
:100B700017D0134BFB6014E0FFF742FE0346002B37
:100B800011D04FF40043FB600DE000F021F8034664
:100B9000184600F043F80346184600F055F8F86090
:100BA00002E000BF00E000BFFB6818461037BD46FA
:100BB00080BD00BF00303000003010000030200049
:100BC00000127A0000C0C00000C0400000C08000D9
:100BD00080B582B000AF00237B60FFF723FE0346A1
:100BE000082B0CD0082B0ED8002B02D0042B03D0DE
:100BF00009E0094B7B6009E0074B7B6006E000F0F1
:100C00004BF8786002E0044B7B6000BF7B681846BD
:100C10000837BD4680BD00BF00127A0080B582B0A3
:100C200000AF7860FFF70CFE03461B0903F00F03CB
:100C3000044AD35C1A467B68D34018460837BD4641
:100C400080BD00BF802B000880B582B000AF786007
:100C5000FFF704FE03461B0A044AD35C1A467B686E
:100C6000D34018460837BD4680BD00BF902B000812
:100C700080B582B000AF7860FFF7FEFD0346DB0A67
:100C8000044AD35C1A467B68D34018460837BD46F1
:100C900080BD00BF902B000890B585B000AF002349
:100CA000FB600023BB60FFF71FFEB860BB68B3F5B5
:100CB000004F04D0BB68B3F5803F03D005E0154B6F
:100CC000FB6005E0134BFB6002E0124BFB6000BFD2
:100CD000FFF726FE034603F00F030133FA68B2FB69
:100CE000F3F4FFF70FFE034603F470134FF4701292
:100CF0007A607A6892FAA2F23A603A68B2FA82F2BC
:100D0000D2B2D340023304FB03F318461437BD4676
:100D100090BD00BF00127A0080B485B000AF78604B
:100D20007B6803F00703FB600C4BDB68BB60BA68B1
:100D30004FF6FF031340BB60FB681A02BB68134306
:100D400043F0BF6343F40033BB60044ABB68D36025
:100D500000BF1437BD465DF8047B704700ED00E02E
:100D600080B400AF044BDB681B0A03F0070318468E
:100D7000BD465DF8047B704700ED00E080B483B0B1
:100D800000AF03463960FB7197F90730002B0ADB8F
:100D90003B68DAB20C4997F907301201D2B20B4422
:100DA00083F800230AE03B68DAB20849FB7903F0D4
:100DB0000F03043B1201D2B20B441A7600BF0C376A
:100DC000BD465DF8047B704700E100E000ED00E007
:100DD00080B489B000AFF860B9607A60FB6803F056
:100DE0000703FB61FB69C3F10703042B28BF04233E
:100DF000BB61FB690433062B02D9FB69033B00E0AE
:100E000000237B614FF0FF32BB6902FA03F3DA4340
:100E1000BB681A407B699A404FF0FF317B6901FA49
:100E200003F3D9437B680B40134318462437BD4670
:100E30005DF8047B7047000080B400AF054B1B6871
:100E4000044A43F00103136000BFBD465DF8047B14
:100E5000704700BF0010024080B400AF064B1B6813
:100E600003F00203022B0CBF01230023DBB2184660
:100E7000BD465DF8047B70470010024080B483B02B
:100E800000AF7860074B1B6823F0F8027B68DB003B
:100E9000044913430B6000BF0C37BD465DF8047B6B
:100EA000704700BF0010024080B483B000AF78608C
:100EB000064B5B6823F0030204497B6813434B60D5
:100EC00000BF0C37BD465DF8047B70470010024040
:100ED00080B400AF044B5B6803F00C031846BD46BA
:100EE0005DF8047B704700BF0010024080B483B0FF
:100EF00000AF7860064B5B6823F0F00204497B6822
:100F000013434B6000BF0C37BD465DF8047B704750
:100F10000010024080B483B000AF7860064B5B687D
:100F200023F4E06204497B6813434B6000BF0C3735
:100F3000BD465DF8047B70470010024080B483B06A
:100F400000AF7860064B5B6823F4605204497B680D
:100F500013434B6000BF0C37BD465DF8047B704700
:100F60000010024080B483B000AF78600A4B1A6B67
:100F70007B681B0E032101FA03F3DB431A407B68F5
:100F800023F07F43044913430B6300BF0C37BD4676
:100F90005DF8047B704700BF0010024080B400AFD2
:100FA000054B1B68044A43F08073136000BFBD46C5
:100FB0005DF8047B704700BF0010024080B400AFB2
:100FC000074B1B6803F00073B3F1007F0CBF0123D4
:100FD0000023DBB21846BD465DF8047B704700BFB6
:100FE0000010024080B485B000AFF860B9607A604C
:100FF0000B4B5B6823F47612F968BB680B43084916
:1010000013434B60064BDB6A23F00F0204497B68F5
:101010001343CB6200BF1437BD465DF8047B7047B5
:101020000010024080B485B000AF7860084BDA69E8
:1010300007497B681343CB61054BDA697B68134032
:10104000FB60FB6800BF1437BD465DF8047B70474A
:101050000010024080B485B000AF7860084B9A69F8
:1010600007497B6813438B61054B9A697B68134082
:10107000FB60FB6800BF1437BD465DF8047B70471A
:101080000010024080B483B000AF7860064B1B684C
:1010900023F0070204497B6813430B6000BF0C3741
:1010A000BD465DF8047B70470020024080B400AF6D
:1010B000044B1B6803F007031846BD465DF8047B2C
:1010C000704700BF0020024080B500AF0A4B2022CD
:1010D0001A60094B01225A60074B0022DA60064B66
:1010E00003229A6004494FF09040FFF718FA00F08D
:1010F0002DFF00BF80BD00BF7000002080B584B010
:1011000000AF0346FB71FB79002B02D0022B17D0F6
:101110002DE000F09FFCF860FB68174A4FF4007167
:10112000164801F059F803469AB2154B1A80144B31
:101130001B881946114800F053FF00F097FC16E099
:1011400000F0CEFDF860FB680E4A4FF400710B48CA
:1011500001F042F803469AB2094B1A80084B1B88EB
:101160001946064800F03CFF00F0C6FD00BF00BF76
:101170001037BD4680BD00BF582B000888000020F6
:10118000880400206C2B000880B582B000AF0346B5
:101190000A46FB711346BB71FB79012B03D1BB7966
:1011A0001846FFF7ABFF00BF0837BD4680BD000003
:1011B000B0B586B002AF0023FB810023BB810120C4
:1011C000FFF748FF4FF08050FFF72CFF0320FFF799
:1011D000A3FDFFF7C5FD034600220F211846FFF7C8
:1011E000F7FD034619464FF0FF30FFF7C7FD00F04B
:1011F000E3F800F041F900F0C9FAFFF765FF00F0ED
:101200001DFF0346002BFAD04FF40071664800F032
:101210004BFF03461A46654B1A80644B1B881A46DF
:101220006349614800F02EFC0346002B40F0B1807A
:101230005F4B1B78303B062B00F2A78001A252F8CF
:1012400023F000BF9B130008611200089B130008E5
:101250009B1300089B1300089B130008CF12000883
:10126000534B5B78302B40F09A80514B9B7807F1C1
:101270000B021146184600F0D1FC03460021184627
:10128000FFF782FF07F1080319464A4800F064FCA3
:10129000034600211846FFF777FF454BDB7907F13E
:1012A0000A021146184600F0B9FC03460021184610
:1012B000FFF76AFFFB7A3A891146BA7A184600F0BE
:1012C000CBFD034602211846FFF75EFF67E0384B6F
:1012D0005B78302B65D1364B9B78FA1D114618464A
:1012E00000F09CFC034600211846FFF74DFF3B46EB
:1012F0001946304800F030FC034600211846FFF73D
:1013000043FF2B4BDB79BA1D1146184600F086FCD3
:10131000034600211846FFF737FF254B1B7A7A1D3D
:101320001146184600F07AFC034600211846FFF7E4
:101330002BFF1F4B5B7A3A1D1146184600F06EFCDE
:10134000034600211846FFF71FFF194B9B7AFA1C32
:101350001146184600F062FC034600211846FFF7CC
:1013600013FFF8793B881D46B9797C793B79FA7887
:101370000192009323460A46294600F0C9FC034621
:1013800002211846FFF700FF0BE00020FFF7B6FE32
:1013900008E00020FFF7B2FE31E700BF2FE700BFF3
:1013A0002DE700BF2BE700BF880200208A04002041
:1013B0008C0400208F04002080B500AF0220FFF7CE
:1013C00061FE00BFFFF772FE0346022BFAD1FFF762
:1013D00033FD00BFFFF740FD0346012BFAD110207B
:1013E000FFF74CFD00224FF4E0114FF40040FFF7EF
:1013F000F9FDFFF7D3FD00BFFFF7E0FD0346012B2A
:10140000FAD10020FFF772FD4FF48060FFF782FDF4
:101410000020FFF793FD0220FFF746FD00BFFFF716
:1014200057FD0346082BFAD10548FEF755FF04483F
:10143000FEF760FF0348FFF795FD00BF80BD00BFCA
:1014400000A24A040000011080B485B000AF7860AB
:10145000084B5A6907497B6813434B61054B5A692E
:101460007B681340FB60FB6800BF1437BD465DF826
:10147000047B70470010024080B586B000AF3B4649
:1014800000221A605A609A60DA601A615A614FF459
:101490000020FFF7D9FF4FF48000FFF7D5FF4FF48E
:1014A0000030FFF7D1FF4FF48020FFF7CDFF4FF45E
:1014B0008010FFF7C9FF4FF6FF733B6003237B608B
:1014C00000233B613B4619461A48FFF728F80323DF
:1014D0003B6003237B6000233B613B461946164873
:1014E000FFF71DF84FF6F3733B6003237B60002387
:1014F0003B613B4619464FF09040FFF710F84FF61E
:10150000FF733B6003237B6000233B613B4619462E
:101510000A48FFF704F804233B6003237B600023A1
:101520003B613B4619460648FEF7F9FF00BF1837F6
:10153000BD4680BD00080048001400480004004873
:10154000000C004880B400AF044BDB681B0A03F0BA
:1015500007031846BD465DF8047B704700ED00E0C8
:1015600080B483B000AF0346FB7197F90730002BBE
:101570000BDBFB7903F01F02074997F907305B0982
:10158000012000FA02F241F8232000BF0C37BD46CB
:101590005DF8047B704700BF00E100E080B483B0D9
:1015A00000AF03463960FB7197F90730002B0ADB67
:1015B0003B68DAB20C4997F907301201D2B20B44FA
:1015C00083F800230AE03B68DAB20849FB7903F0AC
:1015D0000F03043B1201D2B20B441A7600BF0C3742
:1015E000BD465DF8047B704700E100E000ED00E0DF
:1015F00080B489B000AFF860B9607A60FB6803F02E
:101600000703FB61FB69C3F10703042B28BF042315
:10161000BB61FB690433062B02D9FB69033B00E085
:1016200000237B614FF0FF32BB6902FA03F3DA4318
:10163000BB681A407B699A404FF0FF317B6901FA21
:1016400003F3D9437B680B40134318462437BD4648
:101650005DF8047B7047000080B485B000AF78600F
:10166000084B5A6907497B6813434B61054B5A691C
:101670007B681340FB60FB6800BF1437BD465DF814
:10168000047B70470010024080B485B000AF7860E2
:10169000084BDA6907497B681343CB61054BDA696C
:1016A0007B681340FB60FB6800BF1437BD465DF8E4
:1016B000047B70470010024080B483B000AF7860B4
:1016C0007B681B6843F001027B681A6000BF0C371F
:1016D000BD465DF8047B704780B483B000AF78608E
:1016E0007B685B6823F490427B685A607B689B68E8
:1016F00023F02A027B689A6000BF0C37BD465DF874
:10170000047B704780B489B000AF78607B68FB6071
:10171000FB6853E8003FBB60BB6843F02003FB61FC
:101720007B68FA69BA617B617969BA6941E800232B
:101730003B613B69002BE9D100BF00BF2437BD46A8
:101740005DF8047B704780B489B000AF78607B6837
:101750000833FB60FB6853E8003FBB60BB6823F4C1
:101760008063FB617B680833FA69BA617B617969E0
:10177000BA6941E800233B613B69002BE7D100BF18
:1017800000BF2437BD465DF8047B704780B58EB03E
:1017900000AF07F11C0300221A605A609A60DA60F9
:1017A0001A615A619A613B1D00221A605A609A6060
:1017B000DA601A615A614FF40030FFF765FF4FF4A9
:1017C0000030FFF749FF0C237B600223BB6003233B
:1017D000FB6000233B6100237B610723BB613B1D52
:1017E00019464FF09040FEF79AFEFFF7ABFE034616
:1017F000002200211846FFF7FBFE0346194626206B
:10180000FFF7CCFE2620FFF7ABFE4FF46133FB6100
:1018100000233B6200237B620023BB620C23FB623C
:1018200000233B634FF400437B6307F11C0319461D
:101830000948FEF755FF0848FFF785FF0648FFF700
:101840004BFF0548FFF738FF0348FFF75BFF00BF7A
:101850003837BD4680BD00BF0044004080B485B02D
:1018600000AF786039607B685B69FB60FA683B6851
:1018700013401A04FB68D9433B680B401A437B684A
:101880009A6100BF1437BD465DF8047B704780B491
:1018900083B000AF78607B68DB6903F02003202B06
:1018A00001D1012300E0002318460C37BD465DF846
:1018B000047B704780B483B000AF78607B681B689E
:1018C00003F02003202B01D1012300E00023184660
:1018D0000C37BD465DF8047B704780B483B000AF21
:1018E00078607B689B8C9BB2DBB218460C37BD4698
:1018F0005DF8047B704780B400AF00BFFDE780B4A3
:1019000000AF00BFFDE780B400AF00BFFDE780B4CB
:1019100000AF00BFFDE780B400AF00BFFDE780B4BB
:1019200000AF00BFBD465DF8047B704780B400AFD8
:1019300000BFBD465DF8047B704780B400AF00BFB8
:10194000BD465DF8047B704780B400AF00BFBD4664
:101950005DF8047B7047000080B500AF20214FF098
:101960009040FFF77BFF0A48FFF791FF0346002BEB
:101970000CD00748FFF79EFF0346002B06D0044813
:10198000FFF7ABFF0346184600F0F4FA00BF80BD36
:101990000044004080B586B000AF7860144A154B13
:1019A000D31A7B617B693B61134B1B68002B02D10F
:1019B000114B124A1A60104B1A687B6813443A693B
:1019C0009A4207D200F046FC03460C221A604FF000
:1019D000FF3309E0084B1B68FB60074B1A687B6804
:1019E0001344054A1360FB6818461837BD4680BD8E
:1019F000000001200004000098040020F0070020EF
:101A0000DFF834D0FEF73CFC0C480D490D4A0023AA
:101A100002E0D458C4500433C4188C42F9D30A4AA3
:101A20000A4C002301E013600432A242FBD300F011
:101A300017FCFFF7BDFBFEE70000012000000020BF
:101A4000540000203C2C000854000020F007002027
:101A5000FEE7000080B400AF034B1B681846BD468C
:101A60005DF8047B704700BF9C04002080B400AF89
:101A7000034B00221A6000BFBD465DF8047B70472F
:101A80009C04002080B487B000AFF860B9601346B2
:101A9000FB80FB68002B02D0BB68002B07D12D4BCD
:101AA0001B6843F001032B4A136001234CE0FB88C1
:101AB0000C2B07D0274B1B6843F00203254A136009
:101AC000012341E0FB680B331B78212B07D0214B0E
:101AD0001B6843F004031F4A1360012334E0FB68D2
:101AE0001A78BB681A70FB6801331A78BB685A70A1
:101AF000FB6802331A78BB689A700023FB750CE010
:101B0000FB7D0333FA681A44FB7D1178BA681344ED
:101B10000A46DA70FB7D0133FB75FB7D032BEFD9A1
:101B20000023BB750CE0BB7D0733FA681A44BB7D0C
:101B30001178BA6813440A46DA71BB7D0133BB756C
:101B4000BB7D032BEFD9002318461C37BD465DF83B
:101B5000047B70479C04002080B485B000AF78609F
:101B600039607B68002B02D03B68002B07D12A4BE1
:101B70001B6843F00103284A1360012345E000235A
:101B8000FB8100237B7339E07B7B7A6813441B78ED
:101B9000FB72FB7A2F2B06D9FB7A392B03D8FB7A01
:101BA000303B3B731EE0FB7A402B06D9FB7A462B79
:101BB00003D8FB7A373B3B7314E0FB7A602B06D9E2
:101BC000FB7A662B03D8FB7A573B3B730AE0124B38
:101BD0001B6843F00803104A13603B6800221A8018
:101BE000012312E0B7F90E301B011AB23B7B1BB286
:101BF00013431BB2FB817B7B01337B737B7B032B0A
:101C0000C2D93B68FA891A80002318461437BD46AA
:101C10005DF8047B704700BF9C04002080B483B053
:101C200000AF03463960FB713B68002B07D11F4BA7
:101C30001B6843F001031D4A136001232FE0FB7969
:101C40002F2B08D9FB79392B05D8FB79303BDAB239
:101C50003B681A7022E0FB79402B08D9FB79462BB0
:101C600005D8FB79373BDAB23B681A7016E0FB798E
:101C7000602B08D9FB79662B05D8FB79573BDAB284
:101C80003B681A700AE0094B1B6843F00803074AD7
:101C900013603B68FF221A70012300E000231846FE
:101CA0000C37BD465DF8047B704700BF9C040020E4
:101CB00080B485B000AF7860084B5A6907497B68EB
:101CC00013434B61054B5A697B681340FB60FB680B
:101CD00000BF1437BD465DF8047B7047001002401A
:101CE00080B400AF034B1B681846BD465DF8047B0B
:101CF000704700BFA004002080B400AF034B002257
:101D00001A6000BFBD465DF8047B7047A004002048
:101D100080B588B000AF396011461A460346FB71A2
:101D20000B46BB7113467B71FB79052B07D9434BDF
:101D30001B6843F00203414A136001237AE03B68C9
:101D4000002B03D03B68B3F5803F07D33B4B1B68A8
:101D500043F00403394A136001236BE0BB79032B82
:101D600007D9364B1B6843F00803344A136001233C
:101D700060E07B79022B07D9304B1B6843F01003DE
:101D80002E4A1360012355E097F82830012B07D91C
:101D90002A4B1B6843F02003284A1360012349E0C3
:101DA00097F82C30022B07D9244B1B6843F04003D3
:101DB000224A136001233DE0FB79214A52F8233087
:101DC0001846FFF775FF07F1080300221A605A60F2
:101DD0009A60DA601A615A613B68BB60BB79194A44
:101DE00052F82330FB607B79174A52F823303B616D
:101DF00097F82830154A52F823307B6197F82C3039
:101E0000134A52F82330BB61FB79124A52F823304F
:101E100007F1080211461846FEF781FB0346002B26
:101E200007D0064B1B6843F48073044A13600123F8
:101E300000E0002318462037BD4680BDA0040020E6
:101E4000B02B0008C82B0008D82B0008E42B000892
:101E5000EC2B0008982B000880B483B000AF034639
:101E60003960FB711346BB71FB79052B07D91A4BFF
:101E70001B6843F00203184A1360012326E03B6805
:101E8000002B03D03B68B3F5803F07D3124B1B6890
:101E900043F00403104A1360012317E0BB79012BC0
:101EA00007D90D4B1B6843F080030B4A13600123D5
:101EB0000CE0BB79002B02D13B681B0400E03B68BF
:101EC000FA79064951F822209361002318460C370D
:101ED000BD465DF8047B7047A0040020982B0008E5
:101EE00080B483B000AF78607B68DB6903F04003A7
:101EF000402B01D1012300E0002318460C37BD46DA
:101F00005DF8047B704780B483B000AF78607B6875
:101F1000DB6903F08003802B01D1012300E0002363
:101F200018460C37BD465DF8047B704780B483B01B
:101F300000AF78600B46FB70FB789AB27B681A851D
:101F400000BF0C37BD465DF8047B704780B500AF1D
:101F50004FF400720021064800F074F9044B00228F
:101F6000A3F80022024B0022A3F8022200BF80BD8A
:101F7000A404002080B485B000AF0346FB71174B6A
:101F8000B3F800329BB201339BB2C3F30803FB8169
:101F9000124BB3F802329BB2FA899A420BD10F4B23
:101FA000B3F802329BB201339BB2C3F308039AB277
:101FB0000A4BA3F80222094BB3F800329BB2194630
:101FC000064AFB795354054AFB89A2F8003200BF48
:101FD0001437BD465DF8047B704700BFA4040020A1
:101FE00080B584B000AF78600B467B800023FB8116
:101FF00011E000BF1048FFF786FF0346002BF9D021
:10200000FB897A6813441B7819460B48FFF78EFF4B
:10201000FB890133FB81FA897B889A42E9D300BFAF
:102020000548FFF75DFF0346002BF9D000BF00BF56
:102030001037BD4680BD00BF0044004080B483B06F
:1020400000AF0023FB80174BB3F800329AB2154B58
:10205000B3F802329BB29A420AD3124BB3F8003261
:102060009AB2104BB3F802329BB2D31AFB800CE049
:102070000C4BB3F800329AB20A4BB3F802329BB25F
:10208000D31A9BB203F50073FB80FB880D2B01D89C
:10209000002300E0012318460C37BD465DF8047BA1
:1020A000704700BFA404002080B485B000AF786002
:1020B0000B467B800023FB81464BB3F80032BB818B
:1020C0007B88002B06D0434BB3F802329BB2BA890F
:1020D0009A4265D17B88002B02D07B6800221A705F
:1020E000002371E03B4BB3F802329BB21A46394BE6
:1020F0009B5CFB72FB7A0D2B02D0FB7A0A2B37D14B
:10210000344BB3F802329BB201339BB2C3F30803E2
:102110009AB2304BA3F802222E4BB3F80032BB81A7
:102120002C4BB3F802329BB2BA899A4245D0294B64
:10213000B3F802329BB21A46264B9B5CBB72FB7A09
:102140000D2B02D1BB7A0A2B05D0FB7A0A2B34D196
:10215000BB7A0D2B31D11F4BB3F802329BB2013346
:102160009BB2C3F308039AB21A4BA3F8022224E0ED
:10217000FB897A681344FA7A1A70164BB3F8023264
:102180009BB201339BB2C3F308039AB2114BA3F87D
:102190000222FB890133FB810E4BB3F80032BB8175
:1021A000FA897B88013B9A4208DA0A4BB3F802327B
:1021B0009BB2BA899A4295D100E000BFFB897A6848
:1021C000134400221A70FB8918461437BD465DF887
:1021D000047B7047A40400200CB430B5184B0C1ECF
:1021E0001D689DB008DA8B232B604FF0FF301DB0C7
:1021F000BDE8304002B070474FF40273ADF81430C0
:102200004FF000031B9314BF04F1FF3323460493E4
:1022100007934FF6FF7302900690ADF81630209AA0
:1022200021AB02A92846019300F094F9431CBCBFDE
:102230008B232B60002CDAD0029B00221A70D6E789
:102240000400002002440346934200D1704703F883
:10225000011BF9E7014B1868704700BF040000201C
:1022600070B50D4D0D4C641BA4100026A64209D17B
:102270000B4D0C4C00F064FC641BA4100026A6421D
:1022800005D170BD55F8043B98470136EEE755F887
:10229000043B98470136F2E7342C0008342C000840
:1022A000342C0008382C00087047704738B50546B4
:1022B000002941D051F8043C0C1F002BB8BFE41892
:1022C00000F0E0F81D4A136833B9636014602846D3
:1022D000BDE8384000F0DCB8A34208D920682118D6
:1022E0008B4201BF19685B6809182160EDE71A4647
:1022F0005B680BB1A342FAD911685018A0420BD108
:1023000020680144501883421160E0D118685B686E
:10231000536008441060DAE702D90C232B60D6E73B
:10232000206821188B4204BF19685B68636004BF92
:10233000091821605460CAE738BD00BFEC070020CF
:1023400070B50F4E0C463168054611B900F0A4FB7C
:1023500030602146284600F09FFB431C03D14FF01C
:10236000FF34204670BDC41C24F00304A042F8D002
:10237000211A284600F090FB0130F2D1EFE700BFB0
:10238000E80700202DE9F843CD1C25F003050835AA
:102390000C2D38BF0C25002D064601DBA94204D9BF
:1023A0000C2333600020BDE8F883DFF8D48000F010
:1023B00069F8D8F800301C4644BB29463046FFF780
:1023C000BFFF431C044658D1D8F800402746002FD1
:1023D00043D1002C4BD023683946304604EB030927
:1023E00000F05AFB814542D121686D1A29463046DA
:1023F000FFF7A6FF01303AD023682B442360D8F8BA
:1024000000305A6862BBC8F800700FE02268521BA7
:1024100020D40B2A17D96119A342256018BF59602F
:10242000636808BFC8F8001062514B60304600F086
:102430002FF804F10B00231D20F00700C21A1CBF67
:102440001B1AA350AFE76268A3420CBFC8F8002074
:102450005A60EBE723466468AEE73C467F68B6E720
:102460001A465B68A342FBD100235360DEE70C23CE
:102470003360304600F00CF894E70560D6E700BF03
:10248000EC0700200148FFF70FBF00BFE407002062
:102490000148FFF70ABF00BFE40700202DE9F0471D
:1024A0008E681F46BE420B6882460C4690462DD869
:1024B000B1F90C2012F4906F26D06569096905EB1B
:1024C0004505A3EB010905EBD5757B1C4B446D104D
:1024D0009D4238BF1D46530527D52946FFF752FFB9
:1024E000064660B321694A4600F0E6FAA38923F460
:1024F000906343F08003A381266165614E44A5EBA0
:1025000009052660A5603E46BE4200D93E462068C9
:102510003246414600F0A6FAA3689B1BA3602368DD
:10252000334423600020BDE8F0872A4600F0D2FA49
:1025300006460028E0D121695046FFF7B7FE0C237C
:10254000CAF80030A38943F04003A3814FF0FF3065
:10255000E9E700002DE9F04F98468B891B069DB0F6
:1025600007460D46144610D50B6973B94021FFF795
:1025700009FF2860286130B90C233B604FF0FF3021
:102580001DB0BDE8F08F40236B6100230993202329
:102590008DF82930CDF80C803023DFF89C818DF840
:1025A0002A304FF0010923469A4613F8012B0AB14D
:1025B000252AF9D1BAEB040B0BD05B4622462946FB
:1025C0003846FFF76BFF013000F0A780099A5A44A4
:1025D00009929AF80030002B00F09F8000234FF002
:1025E000FF32CDE905230AF1010A049307938DF820
:1025F00053301A935446052214F8011B4E48FDF738
:10260000EFFD049AD8B9D00644BF20238DF853308B
:10261000110744BF2B238DF853309AF800302A2B32
:1026200015D0079A544600204FF00A0C214611F8A5
:10263000013B303B092B4BD9B0B1079214E0A0EB22
:10264000080309FA03F313430493A246D2E7039B5A
:10265000191D1B680391002BBBBF5B4242F00202B5
:1026600007930793B8BF049223782E2B0AD163787F
:102670002A2B32D1039B1A1D1B68039243EAE37392
:1026800002340593DFF8C0A0217803225046FDF7FD
:10269000A7FD38B1049BA0EB0A00402282401343FF
:1026A0000134049314F8011B24488DF828100622E5
:1026B000FDF796FD002836D0214B1BBB039B07334B
:1026C00023F0070308330393099B334409936AE714
:1026D0000CFB02320C460120A8E7002301340593CD
:1026E00019464FF00A0C204610F8012B303A092AFF
:1026F00003D9002BC6D00591C4E70CFB0121044689
:102700000123F0E703AB00932A460E4B04A9384699
:10271000AFF30080421C0646D6D1AB895B063FF57D
:102720002DAF09982CE703AB00932A46054B04A96B
:10273000384600F079F8EDE7F82B0008022C000885
:10274000000000009D240008FE2B00082DE9F04742
:10275000164698468A680B69DDF820909342B8BF08
:102760001346336091F8432007460C460AB1013303
:1027700033602368990642BF3368023333602568AB
:1027800015F0060506D104F1190AE36832689B1AB0
:10279000AB4226DC94F843302268003B18BF01238B
:1027A00092062BD404F1430241463846C847013013
:1027B0001ED02368226903F00603042B02BFE568DC
:1027C0003368ED1AA3680CBF25EAE575002593422E
:1027D000C4BF9B1AED1800261A34B5421AD1002046
:1027E00008E00123524641463846C847013003D12C
:1027F0004FF0FF30BDE8F0870135C6E7E1185A1CFD
:10280000302081F84300224494F8451082F84310A8
:102810000233C7E70123224641463846C847013004
:10282000E6D00136D9E700002DE9FF470F7E0C9E68
:10283000782F914680460C469A4601F1430207D80C
:10284000622F0AD8002F00F0D180582F00F0B880F6
:1028500004F1420684F842703AE0A7F16303152BB5
:10286000F6D801A151F823F0C1280008D5280008A6
:102870005128000851280008512800085128000854
:10288000D5280008512800085128000851280008C0
:1028900051280008D3290008FF2800088D290008C6
:1028A0005128000851280008F5290008512800087F
:1028B000FF28000851280008512800089529000821
:1028C00033681A1D1B68326004F1420684F84230F6
:1028D00001239CE033682068191D3160060601D58C
:1028E0001D6803E04506FBD5B3F90050002D03DA5F
:1028F0002D236D4284F8433058480A2311E02168A3
:102900003368080653F8045B02D4490648BFADB2E9
:102910006F2F5248336014BF0A230823002184F824
:1029200043106668A660002E05DB21682E4321F067
:10293000040121604BD01646B5FBF3F103FB1157A0
:10294000C75D06F8017D2F46BB420D46F4D9082B22
:102950000BD12368DF0708D5236961689942DEBF80
:10296000302306F8013C06F1FF36921B2261CDF8B8
:1029700000A04B4603AA21464046FFF7E7FE013080
:102980004AD14FF0FF3004B0BDE8F087236843F030
:10299000200323603248782784F845702368316823
:1029A0001F0651F8045B02D45F0648BFADB2316028
:1029B000D90744BF43F0200323601DB11023ADE7C6
:1029C0002648E9E7236823F020032360F6E716464C
:1029D000BDE7336825686169181D30602E061B68E5
:1029E00001D5196002E06806FBD519800023236138
:1029F0001646BCE733681A1D32601E686268002103
:102A00003046FDF7EDFB08B1801B60606368236111
:102A1000002384F84330AAE72369324649464046FA
:102A2000D0470130ADD023689B0713D4E068039BE7
:102A30009842B8BF1846A6E70123324649464046A9
:102A4000D04701309DD00135E36803995B1AAB4252
:102A5000F2DCEBE7002504F11906F5E7092C000884
:102A60001A2C0008884210B501EB020402D98442F6
:102A7000234607D8431EA14208D011F8012B03F8C2
:102A8000012FF8E7024401468A4200D110BD13F835
:102A9000014D02F8014DF7E738B5064D0023044615
:102AA00008462B60FEF776FF431C02D12B6803B16A
:102AB000236038BDE00700200A44914200F1FF3353
:102AC00000D1704710B511F8014B03F8014F914246
:102AD000F9D110BD2DE9F041074614460D4621B944
:102AE000BDE8F0411146FFF74DBC2AB9FFF7DEFB08
:102AF00025462846BDE8F08100F01AF884420646D3
:102B000002D8B4EB500FF4D821463846FFF73AFC10
:102B1000804608B94546ECE7B4422246294628BF1C
:102B20003246FFF7C9FF29463846FFF7BFFBF1E7FA
:102B300051F8043C181F002BBCBF0B58C01870473D
:102B4000F8B500BFF8BC08BC9E467047F8B500BF9A
:082B5000F8BC08BC9E4670476A
:102B58003A434D443D3F3B4552523D256C750D0A65
:102B6800000000003A4750494F3D3F3B4552523D17
:102B7800256C750D0A000000000000000000000030
:102B8800010203040607080900000000010203040B
:102B9800000000480004004800080048000C0048F5
:102BA8000010004800140048000002000000040063
:102BB8000000080000001000000020000000400095
:102BC80000000000010000000200000003000000F7
:102BD80000000000010000000300000000000000E9
:102BE80001000000000000000100000002000000D9
:102BF800232D302B2000686C4C00656667454647DE
:102C08000030313233343536373839414243444560
:102C180046003031323334353637383961626364CF
:042C280065660000DD
:082C2C00B4D5FF7F0100000098
:042C3400C5010008CE
:042C3800A1010008EE
:102C3C0000127A000800002000000000A806002006
:102C4C0010070020780700200000000000000000A2
:102C5C000000000000000000000000000000000068
:102C6C000000000000000000000000000000000058
:102C7C000000000000000000000000000000000048
:042C8C000000000044
:0400000508001A01D4
:00000001FF
