:020000040800F2
:10000000000001200D2D0008F12B0008F92B00083D
:10001000012C0008092C0008112C00080000000029
:10002000000000000000000000000000192C000883
:10003000272C000800000000352C0008432C000885
:100040005D2D00085D2D00085D2D00085D2D000868
:100050005D2D00085D2D00085D2D00085D2D000858
:100060005D2D00085D2D00085D2D00085D2D000848
:10007000512C00085D2D00085D2D00085F2C000844
:100080005D2D00085D2D00085D2D00085D2D000828
:100090005D2D00085D2D00085D2D00085D2D000818
:1000A0005D2D00085D2D00085D2D00085D2D000808
:1000B0005D2D00085D2D00085D2D00085D2D0008F8
:1000C0005D2D00085D2D00085D2D00085D2D0008E8
:1000D0005D2D00085D2D00086D2C00085D2D0008C9
:1000E0005D2D00085D2D00085D2D00085D2D0008C8
:1000F0005D2D00085D2D00085D2D00085D2D0008B8
:100100005D2D000800000000000000005D2D0008CB
:100110005D2D00085D2D00085D2D00085D2D000897
:100120005D2D00085D2D00085D2D00085D2D000887
:100130005D2D00085D2D000800000000000000009B
:100140005D2D00085D2D00085D2D000800000000F9
:10015000000000000000000000000000000000009F
:100160005D2D00085D2D00085D2D00085D2D000847
:100170005D2D00085D2D00085D2D00085D2D000837
:100180005D2D00085D2D000800000000000000004B
:040190005D2D0008D9
:1001A00010B5054C237833B9044B13B10448AFF3B1
:1001B00000800123237010BD7000002000000000AB
:1001C000FC55000808B5034B1BB103490348AFF3C6
:1001D000008008BD0000000074000020FC550008ED
:1001E00001F0FF01102A2BDB10F0070F08D010F8E8
:1001F000013B013A8B422DD010F0070F42B3F6D1EC
:10020000F0B441EA012141EA014122F007047FF004
:1002100000070023F0E80256083C85EA010586EA5B
:10022000010685FA47F5A3FA87F586FA47F6A5FA97
:1002300087F68EB9EED1F0BC01F0FF0102F00702A3
:1002400032B110F8013B013A83EA010313B1F8D14E
:100250000020704701387047002D06BF354603382F
:10026000073815F0010F07D1013015F4807F02BF68
:10027000013015F4C03F0130F0BC0138704700BFB9
:1002800080B400AF064BD3F88830054A43F47003BE
:10029000C2F8883000BFBD465DF8047B704700BFE0
:1002A00000ED00E080B483B000AF786039607A6818
:1002B0003B68B2FBF3F3074A013B5360054B002256
:1002C0009A60044B05221A6000BF0C37BD465DF8EA
:1002D000047B704710E000E080B582B000AF78602A
:1002E0004FF47A717868FFF7DDFF00BF0837BD462D
:1002F00080BD000080B483B000AF7860044A7B68A2
:10030000136000BF0C37BD465DF8047B704700BF2B
:100310000000002080B489B000AFF860B9607A6056
:10032000FB681A68BB687B617B6993FAA3F33B6146
:100330003B69B3FA83F3DBB25B00032101FA03F3F9
:10034000DB431A40BB68FB61FB6993FAA3F3BB6113
:10035000BB69B3FA83F3DBB25B00796801FA03F39C
:100360001A43FB681A6000BF2437BD465DF8047B62
:10037000704780B485B000AFF860B9607A60FB6800
:100380005A68BB68DB431A40BB68796801FB03F31A
:100390001A43FB685A6000BF1437BD465DF8047B02
:1003A000704780B489B000AFF860B9607A60FB68CC
:1003B0009A68BB687B617B6993FAA3F33B613B69F5
:1003C000B3FA83F3DBB25B00032101FA03F3DB43EF
:1003D0001A40BB68FB61FB6993FAA3F3BB61BB697D
:1003E000B3FA83F3DBB25B00796801FA03F31A43D3
:1003F000FB689A6000BF2437BD465DF8047B7047F8
:1004000080B489B000AFF860B9607A60FB68DA68E0
:10041000BB687B617B6993FAA3F33B613B69B3FAE9
:1004200083F3DBB25B00032101FA03F3DB431A40E1
:10043000BB68FB61FB6993FAA3F3BB61BB69B3FAC9
:1004400083F3DBB25B00796801FA03F31A43FB68BC
:10045000DA6000BF2437BD465DF8047B704780B486
:1004600089B000AFF860B9607A60FB681A6ABB684F
:100470007B617B6993FAA3F33B613B69B3FA83F336
:10048000DBB29B000F2101FA03F3DB431A40BB6888
:10049000FB61FB6993FAA3F3BB61BB69B3FA83F316
:1004A000DBB29B00796801FA03F31A43FB681A6216
:1004B00000BF2437BD465DF8047B704780B489B027
:1004C00000AFF860B9607A60FB685A6ABB681B0AC3
:1004D0007B617B6993FAA3F33B613B69B3FA83F3D6
:1004E000DBB29B000F2101FA03F3DB431A40BB6828
:1004F0001B0AFB61FB6993FAA3F3BB61BB69B3FA07
:1005000083F3DBB29B00796801FA03F31A43FB68BB
:100510005A6200BF2437BD465DF8047B704780B542
:1005200088B000AF786039603B681B687B617B698D
:1005300093FAA3F33B613B69B3FA83F3DBB2FB614C
:1005400051E03B681A680121FB6901FA03F313408B
:10055000BB61BB69002B43D03B685B68012B03D0B8
:100560003B685B68022B0ED13B689B681A46B969F1
:100570007868FFF716FF3B6819683B68DB681A4626
:100580007868FFF7F6FE3B681B691A46B969786818
:10059000FFF736FF3B685B68022B1AD1BB69FB6033
:1005A000FB6893FAA3F3BB60BB68B3FA83F3DBB2D7
:1005B000072B07D83B685B691A46B9697868FFF76B
:1005C0004EFF06E03B685B691A46B9697868FFF739
:1005D00075FF3B685B681A46B9697868FFF79AFE51
:1005E000FB690133FB613B681A68FB6922FA03F37C
:1005F000002BA6D1002318462037BD4680BD80B40D
:1006000083B000AF78607B681B6803F04003402B29
:1006100001D1012300E0002318460C37BD465DF8E8
:10062000047B704780B483B000AF786039607B682A
:100630005B6823F480523B681A437B685A6000BFB2
:100640000C37BD465DF8047B704780B483B000AFC3
:10065000786039603B689BB21A467B681A6100BFBC
:100660000C37BD465DF8047B704780B584B000AFA1
:10067000786039600123FB737868FFF7C0FF034699
:10068000002B45D17B681B6823F47F4323F0BF0315
:100690003A6811683A68526811433A68D26811435F
:1006A0003A68126911433A68526911433A6892698B
:1006B00011433A68D26911433A68126A0A431A43ED
:1006C0007B681A607B685B6823F4706323F0040323
:1006D0003A6891683A685269120C0A431A437B6877
:1006E0005A603B689B68B3F5006F04D24FF48051A9
:1006F0007868FFF797FF3B681B6AB3F5005F05D189
:100700003B685B6A19467868FFF79FFF0023FB731D
:100710007B68DB6923F400627B68DA61FB7B184647
:100720001037BD4680BD000080B400AF064B1B688B
:1007300003F00203022B0CBF01230023DBB2184697
:10074000BD465DF8047B70470010024080B400AFE6
:10075000064B1B6A03F00203022B0CBF012300238C
:10076000DBB21846BD465DF8047B704700100240BE
:1007700080B400AF044B5B6803F00C031846BD4621
:100780005DF8047B704700BF0010024080B400AFEA
:10079000044B5B6803F0F0031846BD465DF8047B2C
:1007A000704700BF0010024080B400AF044B5B688C
:1007B00003F4E0631846BD465DF8047B704700BF54
:1007C0000010024080B400AF044B5B6803F4605338
:1007D0001846BD465DF8047B704700BF001002401C
:1007E00080B483B000AF7860074B1A6B03217B683D
:1007F00001FA03F31A407B681B06134318460C37B3
:10080000BD465DF8047B70470010024080B483B0A1
:1008100000AF7860064B1A6B7B681A407B681B0A36
:10082000134318460C37BD465DF8047B704700BF84
:100830000010024080B400AF044B5B6803F4C03387
:100840001846BD465DF8047B704700BF00100240AB
:1008500080B400AF044B5B6803F470131846BD46C8
:100860005DF8047B704700BF0010024080B400AF09
:10087000044BDB6A03F00F031846BD465DF8047BAA
:10088000704700BF0010024080B584B000AF7860B0
:100890000023FB607B68002B30D17868FFF7A0FF56
:1008A0000346032B0AD0032B19D8012B02D0022BAD
:1008B0000CD014E000F032F9F8601FE0FFF734FFCD
:1008C0000346002B17D0484BFB6014E0FFF73EFFB8
:1008D0000346002B11D04FF40043FB600DE000F005
:1008E0001DF90346184600F03FF90346184600F08C
:1008F00065F9F86002E000BF00E000BF7B68102BE4
:1009000034D17868FFF76CFF0346384A93420DD024
:10091000364A93421BD8364A934203D0354A934213
:100920000CD014E000F0FAF8F8601FE0FFF7FCFECE
:100930000346002B17D02C4BFB6014E0FFF706FF9B
:100940000346002B11D04FF40043FB600DE000F094
:10095000E5F80346184600F007F90346184600F08C
:1009600019F9F86002E000BF00E000BF7B68122BBD
:1009700034D17868FFF734FF03461F4A93420DD005
:100980001D4A93421BD81D4A934203D01C4A9342EE
:100990000CD014E000F0C2F8F8601FE0FFF7C4FECE
:1009A0000346002B17D0104BFB6014E0FFF7CEFE80
:1009B0000346002B11D04FF40043FB600DE000F024
:1009C000ADF80346184600F0CFF80346184600F08D
:1009D000E1F8F86002E000BF00E000BFFB681846E5
:1009E0001037BD4680BD00BF00127A000000031022
:1009F000000001100000021000000C1200000412A0
:100A00000000081280B584B000AF78600023FB605E
:100A10007B68B3F5401F34D17868FFF7F7FE0346D3
:100A2000374A93420DD0364A93421BD8354A9342F7
:100A300003D0354A93420CD014E000F06FF8F86010
:100A40001FE0FFF771FE0346002B17D02F4BFB6012
:100A500014E0FFF77BFE0346002B11D04FF4004358
:100A6000FB600DE000F05AF80346184600F07CF8F1
:100A70000346184600F08EF8F86002E000BF00E080
:100A800000BF7B68B3F5400F34D17868FFF7BEFE36
:100A900003461F4A93420DD01D4A93421BD81D4A5C
:100AA000934203D01C4A93420CD014E000F036F875
:100AB000F8601FE0FFF738FE0346002B17D0134BFA
:100AC000FB6014E0FFF742FE0346002B11D04FF409
:100AD0000043FB600DE000F021F80346184600F0EB
:100AE00043F80346184600F055F8F86002E000BFEE
:100AF00000E000BFFB6818461037BD4680BD00BF50
:100B000000303000003010000030200000127A0069
:100B100000C0C00000C0400000C0800080B582B0AE
:100B200000AF00237B60FFF723FE0346082B0CD0A9
:100B3000082B0ED8002B02D0042B03D009E0094B60
:100B40007B6009E0074B7B6006E000F04BF87860C3
:100B500002E0044B7B6000BF7B6818460837BD4647
:100B600080BD00BF00127A0080B582B000AF78600F
:100B7000FFF70CFE03461B0903F00F03044AD35C86
:100B80001A467B68D34018460837BD4680BD00BF73
:100B90007056000880B582B000AF7860FFF704FEA1
:100BA00003461B0A044AD35C1A467B68D3401846A6
:100BB0000837BD4680BD00BF8056000880B582B0B2
:100BC00000AF7860FFF7FEFD0346DB0A044AD35C02
:100BD0001A467B68D34018460837BD4680BD00BF23
:100BE0008056000890B585B000AF0023FB6000235D
:100BF000BB60FFF71FFEB860BB68B3F5004F04D0C1
:100C0000BB68B3F5803F03D005E0154BFB6005E002
:100C1000134BFB6002E0124BFB6000BFFFF726FEA8
:100C2000034603F00F030133FA68B2FBF3F4FFF756
:100C30000FFE034603F470134FF470127A607A6863
:100C400092FAA2F23A603A68B2FA82F2D2B2D34091
:100C5000023304FB03F318461437BD4690BD00BFB2
:100C600000127A0080B483B000AF786039607B688E
:100C70003A689A6200BF0C37BD465DF8047B704746
:100C800080B483B000AF786039607B683A68DA621C
:100C900000BF0C37BD465DF8047B704780B483B05D
:100CA00000AF786039607B683A681A6300BF0C3720
:100CB000BD465DF8047B704780B483B000AF7860B8
:100CC00039607B683A685A6300BF0C37BD465DF8EF
:100CD000047B704780B483B000AF786039607B6874
:100CE0003A689A6300BF0C37BD465DF8047B7047D5
:100CF00080B483B000AF786039607B683A68DA63AB
:100D000000BF0C37BD465DF8047B704780B483B0EC
:100D100000AF786039607B683A681A6400BF0C37AE
:100D2000BD465DF8047B704780B483B000AF786047
:100D300039607B689B6D7B683A689A6500BF0C37A9
:100D4000BD465DF8047B704780B483B000AF786027
:100D500039607B683A68DA6500BF0C37BD465DF8DC
:100D6000047B704780B483B000AF78607B685B69B8
:100D700043F001027B685A6100BF0C37BD465DF845
:100D8000047B704780B584B000AF786039607B68C1
:100D90001B68FB607B683F4A934213D07B68B3F1CA
:100DA000804F0FD07B683C4A93420BD07B683B4A14
:100DB000934207D07B683A4A934203D07B68394A12
:100DC000934206D1FB6823F070023B685B681343D3
:100DD000FB607B682F4A93421FD07B68B3F1804F42
:100DE0001BD07B682C4A934217D07B682B4A9342D6
:100DF00013D07B682A4A93420FD07B682A4A9342D9
:100E00000BD07B68294A934207D07B68284A9342DB
:100E100003D07B68234A934206D1FB6823F44072D7
:100E20003B68DB681343FB607B68FA681A603B68C9
:100E30009B6819467868FFF723FF3B681B881946B3
:100E40007868FFF70FFF7B68124A934213D07B68E4
:100E5000134A93420FD07B68134A93420BD07B68AE
:100E6000124A934207D07B68114A934203D07B68B1
:100E70000C4A934205D13B681B6919467868FFF715
:100E80000DFF7868FFF76EFF002318461037BD4648
:100E900080BD00BF002C014000040040000800405D
:100EA0000034014000500140004001400044014036
:100EB0000048014080B586B000AFF860B9607A6044
:100EC0000123FB75BB68B3F5801F45D0BB68B3F544
:100ED000801F48D8BB68B3F5803F36D0BB68B3F5F8
:100EE000803F40D8BB68B3F5805F27D0BB68B3F5BF
:100EF000805F38D8BB68B3F5807F18D0BB68B3F586
:100F0000807F30D8BB68012B03D0BB68102B07D083
:100F100029E07968F86800F02DF80346FB7523E0B6
:100F20007968F86800F0ACF80346FB751CE0796856
:100F3000F86800F02FF90346FB7515E07968F8684A
:100F400000F0B2F90346FB750EE07968F86800F02E
:100F50001DFA0346FB7507E07968F86800F080FA2F
:100F60000346FB7500E000BFFB7D18461837BD4601
:100F700080BD000080B586B000AF786039607B68C6
:100F80001B6A23F001027B681A627B681B6A7B6123
:100F90007B685B683B617B689B69FB60FB6823F057
:100FA0000303FB60FB6823F4803323F070033A688B
:100FB00012681343FB607B6923F002023B681B69E4
:100FC00013437B617B6923F001023B685B68134339
:100FD0007B617B68244A934213D07B68234A934207
:100FE0000FD07B68224A93420BD07B68214A934200
:100FF00007D07B68204A934203D07B681F4A934204
:101000001ED17B6923F008023B685B699B00134398
:101010007B617B6923F004023B689B689B00134360
:101020007B613B6923F480723B689B6913433B619E
:101030003B6923F400723B68DB695B0013433B614F
:101040007B683A695A607B68FA689A613B68DB683A
:1010500019467868FFF730FE7B687A691A620023C8
:1010600018461837BD4680BD002C014000340140B1
:101070000040014000440140004801400050014050
:1010800080B586B000AF786039607B681B6A23F05A
:1010900010027B681A627B681B6A7B617B685B68F5
:1010A0003B617B689B69FB60FB6823F44073FB60DA
:1010B000FB6823F0807323F4E0433A68126812025D
:1010C0001343FB607B6923F020023B681B691B0113
:1010D00013437B617B6923F010023B685B681B0153
:1010E00013437B617B68254A934213D07B68244A73
:1010F00093420FD07B68234A93420BD07B68224AED
:10110000934207D07B68214A934203D07B68204AF0
:1011100093421FD17B6923F080023B685B699B018E
:1011200013437B617B6923F040023B689B689B0112
:1011300013437B613B6923F480623B689B699B009E
:1011400013433B613B6923F400623B68DB69DB00CE
:1011500013433B617B683A695A607B68FA689A611D
:101160003B68DB6819467868FFF7B4FD7B687A69ED
:101170001A62002318461837BD4680BD002C014076
:10118000003401400040014000440140004801405B
:101190000050014080B586B000AF786039607B6850
:1011A0001B6A23F480727B681A627B681B6A7B610E
:1011B0007B685B683B617B68DB69FB60FB6823F0F5
:1011C0000303FB60FB6823F4803323F070033A6869
:1011D00012681343FB607B6923F400723B681B6950
:1011E0001B0213437B617B6923F480723B685B685D
:1011F0001B0213437B617B68254A934213D07B68B3
:10120000244A93420FD07B68234A93420BD07B68D9
:10121000224A934207D07B68214A934203D07B68DD
:10122000204A93421FD17B6923F400623B685B69CB
:101230009B0213437B617B6923F480623B689B685C
:101240009B0213437B613B6923F480523B689B699B
:101250001B0113433B613B6923F400523B68DB698C
:101260005B0113433B617B683A695A607B68FA68AB
:10127000DA613B68DB6819467868FFF739FD7B68FF
:101280007A691A62002318461837BD4680BD00BF30
:10129000002C014000340140004001400044014066
:1012A000004801400050014080B586B000AF786032
:1012B00039607B681B6A23F480527B681A627B6802
:1012C0001B6A3B617B685B687B617B68DB69FB60F9
:1012D000FB6823F44073FB60FB6823F0807323F406
:1012E000E0433A68126812021343FB603B6923F43F
:1012F00000523B681B691B0313433B613B6923F4AA
:1013000080523B685B681B0313433B617B68194A4F
:10131000934213D07B68184A93420FD07B68174AD8
:1013200093420BD07B68164A934207D07B68154ADC
:10133000934203D07B68144A934207D17B6923F41C
:1013400080423B689B699B0113437B617B687A69A0
:101350005A607B68FA68DA613B68DB68194678682E
:10136000FFF7D4FC7B683A691A62002318461837E5
:10137000BD4680BD002C01400034014000400140CA
:1013800000440140004801400050014080B584B055
:1013900000AF786039607B681B6A23F480327B6819
:1013A0001A627B681B6AFB607B685B6DBB60BB6815
:1013B00023F4803323F070033A6812681343BB6050
:1013C000FB6823F400323B681B691B041343FB607A
:1013D000FB6823F480323B685B681B041343FB60AB
:1013E0007B68194A934213D07B68184A93420FD006
:1013F0007B68174A93420BD07B68164A934207D00A
:101400007B68154A934203D07B68144A934209D102
:101410007B685B6823F480323B689B691B021A433C
:101420007B685A607B68BA685A653B68DB68194616
:101430007868FFF779FC7B68FA681A62002318461F
:101440001037BD4680BD00BF002C01400034014074
:10145000004001400044014000480140005001406C
:1014600080B584B000AF786039607B681B6A23F474
:1014700080127B681A627B681B6AFB607B685B6D0D
:10148000BB60BB6823F0807323F4E0433A681268C2
:1014900012021343BB60FB6823F400123B681B6914
:1014A0001B051343FB60FB6823F480123B685B68F9
:1014B0001B051343FB607B68184A934213D07B687B
:1014C000174A93420FD07B68164A93420BD07B6831
:1014D000154A934207D07B68144A934203D07B6835
:1014E000134A934209D17B685B6823F480223B68EE
:1014F0009B699B021A437B685A607B68BA685A658D
:101500003B68DB6819467868FFF71EFC7B68FA6861
:101510001A62002318461037BD4680BD002C0140DA
:1015200000340140004001400044014000480140B7
:101530000050014080B483B000AF78607B681B68C6
:1015400003F00103012B01D1012300E00023184621
:101550000C37BD465DF8047B704780B483B000AFA4
:10156000786039607B685B6823F440523B681A43BB
:101570007B685A6000BF0C37BD465DF8047B70473E
:1015800080B483B000AF786039607B689B6823F4D7
:1015900040723B681A437B689A6000BF0C37BD46B7
:1015A0005DF8047B704780B487B000AFF860B96025
:1015B0007A603B607B68B3F5004F1AD1BB685A0074
:1015C0003B685B081A443B68B2FBF3F39BB27B6158
:1015D0007A694FF6F07313403B617B695B089BB2FD
:1015E00003F007033A6913433B61FB683A69DA6029
:1015F0000AE03B685A08BB681A443B68B2FBF3F345
:101600009BB21A46FB68DA6000BF1C37BD465DF826
:10161000047B704780B584B000AF786039600123E7
:10162000FB730023BB607868FFF784FF0346002B41
:101630005CD17B681A68304B13403A6851683A684D
:10164000D26811433A68126911433A6892690A43B1
:101650001A437B681A603B689B6819467868FFF7F5
:101660007CFF3B685B6919467868FFF789FF7B68F8
:10167000224A934204D10020FFF706F9B86024E023
:101680007B681F4A934204D11020FFF7FDF8B86031
:101690001BE07B681B4A934204D11220FFF7F4F849
:1016A000B86012E07B68184A934205D14FF44010AD
:1016B000FFF7A8F9B86008E07B68144A934204D1A8
:1016C0004FF44000FFF79EF9B860BB68002B0DD0C7
:1016D0003B681B68002B09D00023FB733B689A69A9
:1016E0003B681B68B9687868FFF75DFFFB7B1846AD
:1016F0001037BD4680BD00BFF369FFEF00380140E1
:101700000044004000480040004C004000500040B1
:1017100080B485B000AF78607B6803F00703FB609E
:101720000C4BDB68BB60BA684FF6FF031340BB602D
:10173000FB681A02BB68134343F0BF6343F40033F2
:10174000BB60044ABB68D36000BF1437BD465DF878
:10175000047B704700ED00E080B400AF044BDB6811
:101760001B0A03F007031846BD465DF8047B70476B
:1017700000ED00E080B483B000AF03463960FB7138
:1017800097F90730002B0ADB3B68DAB20C4997F96E
:1017900007301201D2B20B4483F800230AE03B6801
:1017A000DAB20849FB7903F00F03043B1201D2B20D
:1017B0000B441A7600BF0C37BD465DF8047B7047BA
:1017C00000E100E000ED00E080B489B000AFF86017
:1017D000B9607A60FB6803F00703FB61FB69C3F142
:1017E0000703042B28BF0423BB61FB690433062BCA
:1017F00002D9FB69033B00E000237B614FF0FF321D
:10180000BB6902FA03F3DA43BB681A407B699A406A
:101810004FF0FF317B6901FA03F3D9437B680B403A
:10182000134318462437BD465DF8047B704700001B
:1018300080B400AF054B1B68044A43F001031360FA
:1018400000BFBD465DF8047B704700BF001002403A
:1018500080B400AF064B1B6803F00203022B0CBFE1
:1018600001230023DBB21846BD465DF8047B7047B8
:101870000010024080B483B000AF7860074B1B6853
:1018800023F0F8027B68DB00044913430B6000BFC0
:101890000C37BD465DF8047B704700BF0010024066
:1018A00080B483B000AF7860064B5B6823F003021E
:1018B00004497B6813434B6000BF0C37BD465DF89D
:1018C000047B70470010024080B400AF044B5B689B
:1018D00003F00C031846BD465DF8047B704700BF5B
:1018E0000010024080B483B000AF7860064B5B68A4
:1018F00023F0F00204497B6813434B6000BF0C37B0
:10190000BD465DF8047B70470010024080B483B090
:1019100000AF7860064B5B6823F4E06204497B68A3
:1019200013434B6000BF0C37BD465DF8047B704726
:101930000010024080B483B000AF7860064B5B6853
:1019400023F4605204497B6813434B6000BF0C379B
:10195000BD465DF8047B70470010024080B483B040
:1019600000AF78600A4B1A6B7B681B0E032101FAEB
:1019700003F3DB431A407B6823F07F43044913439E
:101980000B6300BF0C37BD465DF8047B704700BF9A
:101990000010024080B483B000AF78600A4B1A6B2D
:1019A0007B68DB0E4FF4807101FA03F3DB431A40CE
:1019B0007B6823F07C43044913430B6300BF0C375F
:1019C000BD465DF8047B70470010024080B400AF54
:1019D000054B1B68044A43F08073136000BFBD468B
:1019E0005DF8047B704700BF0010024080B400AF78
:1019F000074B1B6803F00073B3F1007F0CBF01239A
:101A00000023DBB21846BD465DF8047B704700BF7B
:101A10000010024080B485B000AFF860B9607A6011
:101A20000B4B5B6823F47612F968BB680B430849DB
:101A300013434B60064BDB6A23F00F0204497B68BB
:101A40001343CB6200BF1437BD465DF8047B70477B
:101A50000010024080B485B000AF7860084BDA69AE
:101A600007497B681343CB61054BDA697B681340F8
:101A7000FB60FB6800BF1437BD465DF8047B704710
:101A80000010024080B485B000AF7860084B9A69BE
:101A900007497B6813438B61054B9A697B68134048
:101AA000FB60FB6800BF1437BD465DF8047B7047E0
:101AB0000010024080B483B000AF7860064B1B6812
:101AC00023F0070204497B6813430B6000BF0C3707
:101AD000BD465DF8047B70470020024080B400AF33
:101AE000044B1B6803F007031846BD465DF8047BF2
:101AF000704700BF0020024080B500AF0120FFF713
:101B0000C1FF4FF08050FFF7A5FF0320FFF700FE55
:101B1000FFF722FE034600220F211846FFF754FE6E
:101B2000034619464FF0FF30FFF724FE00F00AF895
:101B300000F06CF800F072F900F0BAFF02F066FDF8
:101B400000BFFDE780B500AF0220FFF7B3FF00BF85
:101B5000FFF7C4FF0346022BFAD1FFF769FE00BF6F
:101B6000FFF776FE0346012BFAD11020FFF782FE25
:101B700000224FF4E0114FF40040FFF74BFFFFF756
:101B800025FF00BFFFF732FF0346012BFAD10020EB
:101B9000FFF7A8FE4FF48060FFF7B8FE0020FFF7C4
:101BA000C9FE0220FFF77CFE00BFFFF78DFE034653
:101BB000082BFAD10748FEF78FFB0648FEF79AFB81
:101BC0000548FFF7CBFE4FF00840FFF7E3FE00BFEC
:101BD00080BD00BF00A24A040000011080B485B09F
:101BE00000AF7860084B5A6907497B6813434B6123
:101BF000054B5A697B681340FB60FB6800BF1437D4
:101C0000BD465DF8047B70470010024080B586B089
:101C100000AF3B4600221A605A609A60DA601A618F
:101C20005A614FF40020FFF7D9FF4FF48000FFF70F
:101C3000D5FF4FF40030FFF7D1FF4FF48020FFF7BE
:101C4000CDFF4FF48010FFF7C9FF4FF6FF733B60E5
:101C500003237B6000233B613B4619461A48FEF78D
:101C60005EFC03233B6003237B6000233B613B4618
:101C700019461648FEF753FC4FF613733B600323D7
:101C80007B6000233B613B4619464FF09040FEF7D6
:101C900046FC4FF6BF733B6003237B6000233B6130
:101CA0003B4619460A48FEF73AFC04233B600323EF
:101CB0007B6000233B613B4619460648FEF72FFC3C
:101CC00000BF1837BD4680BD00080048001400481A
:101CD00000040048000C004880B400AF044BDB68EF
:101CE0001B0A03F007031846BD465DF8047B7047E6
:101CF00000ED00E080B483B000AF0346FB7197F9BC
:101D00000730002B0BDBFB7903F01F02074997F923
:101D100007305B09012000FA02F241F8232000BFDE
:101D20000C37BD465DF8047B704700BF00E100E062
:101D300080B483B000AF03463960FB7197F9073078
:101D4000002B0ADB3B68DAB20C4997F90730120125
:101D5000D2B20B4483F800230AE03B68DAB20849A8
:101D6000FB7903F00F03043B1201D2B20B441A7645
:101D700000BF0C37BD465DF8047B704700E100E012
:101D800000ED00E080B489B000AFF860B9607A601F
:101D9000FB6803F00703FB61FB69C3F10703042B36
:101DA00028BF0423BB61FB690433062B02D9FB69FE
:101DB000033B00E000237B614FF0FF32BB6902FA76
:101DC00003F3DA43BB681A407B699A404FF0FF3156
:101DD0007B6901FA03F3D9437B680B401343184630
:101DE0002437BD465DF8047B7047000080B485B0A1
:101DF00000AF7860084B5A6907497B6813434B6111
:101E0000054B5A697B681340FB60FB6800BF1437C1
:101E1000BD465DF8047B70470010024080B500AFFE
:101E20000120FFF7E3FFFFF757FF034600220021E1
:101E30001846FFF7A7FF034619460C20FFF778FF67
:101E40000C20FFF757FFFFF747FF03460022002152
:101E50001846FFF797FF034619460F20FFF768FF64
:101E60000F20FFF747FF00BF80BD000080B485B0A2
:101E700000AFF860B9607A60BB68013B0D4AD35C83
:101E80001A46FB6813441B6823F4804323F01003B5
:101E9000BA68013A07498A5C1146FA680A44114651
:101EA0007A6813430B6000BF1437BD465DF8047BAE
:101EB000704700BF8856000880B485B000AFF86056
:101EC000B9607A60BB68013B0C4AD35C1A46FB6878
:101ED00013441B6823F02002BB68013B0749CB5C1D
:101EE0001946FB680B4419467B6813430B6000BF1F
:101EF0001437BD465DF8047B704700BF8856000864
:101F000080B485B000AFF860B9607A60BB68013B0F
:101F10000C4AD35C1A46FB6813441B6823F040024A
:101F2000BB68013B0749CB5C1946FB680B4419466B
:101F30007B6813430B6000BF1437BD465DF8047B1C
:101F4000704700BF8856000880B485B000AFF860C5
:101F5000B9607A60BB68013B0C4AD35C1A46FB68E7
:101F600013441B6823F08002BB68013B0749CB5C2C
:101F70001946FB680B4419467B6813430B6000BF8E
:101F80001437BD465DF8047B704700BF88560008D3
:101F900080B485B000AFF860B9607A60BB68013B7F
:101FA0000C4AD35C1A46FB6813441B6823F4407246
:101FB000BB68013B0749CB5C1946FB680B441946DB
:101FC0007B6813430B6000BF1437BD465DF8047B8C
:101FD000704700BF8856000880B485B000AFF86035
:101FE000B9607A60BB68013B0C4AD35C1A46FB6857
:101FF00013441B6823F44062BB68013B0749CB5C78
:102000001946FB680B4419467B6813430B6000BFFD
:102010001437BD465DF8047B704700BF8856000842
:1020200080B485B000AFF860B9607A60BB68013BEE
:102030000C4AD35C1A46FB6813441B6823F44052D5
:10204000BB68013B0749CB5C1946FB680B4419464A
:102050007B6813430B6000BF1437BD465DF8047BFB
:10206000704700BF8856000880B485B000AF786024
:10207000084B5A6907497B6813434B61054B5A6902
:102080007B681340FB60FB6800BF1437BD465DF8FA
:10209000047B70470010024080B485B000AF7860C8
:1020A000084B9A6907497B6813438B61054B9A6912
:1020B0007B681340FB60FB6800BF1437BD465DF8CA
:1020C000047B70470010024080B483B000AF78609A
:1020D00039607B685B6823F010023B681A437B68B9
:1020E0005A6000BF0C37BD465DF8047B704780B472
:1020F00083B000AF78607B685B6823F008027B6880
:102100005A6000BF0C37BD465DF8047B7047000085
:1021100080B590B000AF07F11803282200211846BF
:1021200002F0EEFD3B4600221A605A609A60DA60C7
:102130001A615A614FF48050FFF7AEFF4FF4003040
:10214000FFF792FFE0233B6002237B600323BB6029
:102150000023FB6000233B6105237B613B4619465E
:102160004FF09040FEF7DBF9002202212548FFF7EF
:102170007DFE4FF4405202212248FFF751FF00221A
:1021800002212048FFF798FE002202211D48FFF798
:10219000B7FE802202211B48FFF7D6FE4FF4807263
:1021A00002211848FFF7F4FE4FF48062022115481F
:1021B000FFF712FF0023BB614FF48273FB614FF402
:1021C00070633B6200237B620023BB624FF40073A9
:1021D000FB6208233B6300237B630023BB6307236D
:1021E000FB6307F1180319460748FEF73EFA002182
:1021F0000548FFF769FF0448FFF779FF00BF403744
:10220000BD4680BD000002400030014080B485B072
:1022100000AFF860B9607A60BB68013B0D4AD35CDF
:102220001A46FB6813441B6823F4804323F0100311
:10223000BA68013A07498A5C1146FA680A441146AD
:102240007A6813430B6000BF1437BD465DF8047B0A
:10225000704700BF9056000880B485B000AFF860AA
:10226000B9607A60BB68013B0C4AD35C1A46FB68D4
:1022700013441B6823F02002BB68013B0749CB5C79
:102280001946FB680B4419467B6813430B6000BF7B
:102290001437BD465DF8047B704700BF90560008B8
:1022A00080B485B000AFF860B9607A60BB68013B6C
:1022B0000C4AD35C1A46FB6813441B6823F04002A7
:1022C000BB68013B0749CB5C1946FB680B441946C8
:1022D0007B6813430B6000BF1437BD465DF8047B79
:1022E000704700BF9056000880B485B000AFF8601A
:1022F000B9607A60BB68013B0C4AD35C1A46FB6844
:1023000013441B6823F08002BB68013B0749CB5C88
:102310001946FB680B4419467B6813430B6000BFEA
:102320001437BD465DF8047B704700BF9056000827
:1023300080B485B000AFF860B9607A60BB68013BDB
:102340000C4AD35C1A46FB6813441B6823F44072A2
:10235000BB68013B0749CB5C1946FB680B44194637
:102360007B6813430B6000BF1437BD465DF8047BE8
:10237000704700BF9056000880B485B000AFF86089
:10238000B9607A60BB68013B0C4AD35C1A46FB68B3
:1023900013441B6823F44062BB68013B0749CB5CD4
:1023A0001946FB680B4419467B6813430B6000BF5A
:1023B0001437BD465DF8047B704700BF9056000897
:1023C00080B485B000AFF860B9607A60BB68013B4B
:1023D0000C4AD35C1A46FB6813441B6823F4405232
:1023E000BB68013B0749CB5C1946FB680B441946A7
:1023F0007B6813430B6000BF1437BD465DF8047B58
:10240000704700BF9056000880B485B000AF786078
:10241000084B5A6907497B6813434B61054B5A695E
:102420007B681340FB60FB6800BF1437BD465DF856
:10243000047B70470010024080B485B000AF786024
:10244000084BDA6907497B681343CB61054BDA69AE
:102450007B681340FB60FB6800BF1437BD465DF826
:10246000047B70470010024080B483B000AF7860F6
:102470007B681B6823F080027B681A6000BF0C3702
:10248000BD465DF8047B704780B485B000AF7860CE
:1024900039603B68012B28D03B68042B23D03B6874
:1024A000102B1ED03B68402B19D03B68B3F5807FC2
:1024B00013D03B68B3F5806F0DD03B68B3F5805FF8
:1024C00007D03B68B3F5803F01D107230EE0082316
:1024D0000CE006230AE0052308E0042306E00323BA
:1024E00004E0022302E0012300E00023FB737B6889
:1024F00018331946FB7B0B4AD35C0B44BB60BB68AB
:102500001A68FB7B0849CB5C194604238B40DB43EC
:102510001A40BB681A6000BF1437BD465DF8047BE3
:10252000704700BF98560008A456000880B485B0D4
:1025300000AF786039603B68012B28D03B68042BE2
:1025400023D03B68102B1ED03B68402B19D03B6832
:10255000B3F5807F13D03B68B3F5806F0DD03B6837
:10256000B3F5805F07D03B68B3F5803F01D1072307
:102570000EE008230CE006230AE0052308E004230C
:1025800006E0032304E0022302E0012300E000232D
:10259000FB737B6818331946FB7B0A4AD35C0B44F8
:1025A000BB60BB681A68FB7B0749CB5C19460823F4
:1025B0008B401A43BB681A6000BF1437BD465DF8F4
:1025C000047B704798560008A456000880B485B074
:1025D00000AF786039603B68012B28D03B68042B42
:1025E00023D03B68102B1ED03B68402B19D03B6892
:1025F000B3F5807F13D03B68B3F5806F0DD03B6897
:10260000B3F5805F07D03B68B3F5803F01D1072366
:102610000EE008230CE006230AE0052308E004236B
:1026200006E0032304E0022302E0012300E000238C
:10263000FB737B6818331946FB7B0B4AD35C0B4456
:10264000BB60BB681A68FB7B0849CB5C1946082352
:102650008B40DB431A40BB681A6000BF1437BD468D
:102660005DF8047B704700BF98560008A456000828
:1026700080B483B000AF786039607B689B6823F4D6
:10268000A03323F007033A681A437B689A6000BFBF
:102690000C37BD465DF8047B704780B483B000AF53
:1026A000786039607B685B6823F070023B681A438E
:1026B0007B685A6000BF0C37BD465DF8047B7047ED
:1026C00080B483B000AF78607B689B6823F08002A1
:1026D0007B689A6000BF0C37BD465DF8047B70478D
:1026E00080B594B000AF07F13C0300221A605A6035
:1026F0009A60DA601A6107F11C0320220021184653
:1027000002F0FEFA3B1D00221A605A609A60DA60FD
:102710001A615A610420FFF78FFE102205214748F5
:10272000FFF774FD4FF4805205214448FFF748FE3F
:10273000002205214148FFF78FFD002205213F4877
:10274000FFF7AEFD802205213C48FFF7CDFD4FF499
:10275000807205213948FFF7EBFD4FF480620521B7
:102760003648FFF709FE0023BB8700233B6448F689
:102770009F437B640023BB6407F13C031946304848
:10278000FEF700FB2E48FFF76FFE00212C48FFF7F5
:102790006FFF01212A48FFF7C9FE6023FB61002378
:1027A0003B6200237B6244F24F63BB620023FB6207
:1027B00007F11C031A4601212148FEF77BFB01218A
:1027C0001F48FFF761FE4FF480711D48FFF7AEFE12
:1027D00007F11C031A464FF480711948FEF76AFB93
:1027E0004FF480711648FFF74FFE00211448FFF7A1
:1027F00054FF1348FFF764FF01211148FFF7E6FE7D
:102800004FF480710E48FFF7E1FE4FF48020FFF790
:10281000FBFD40237B600223BB600323FB6000239E
:102820003B6100237B610223BB613B1D19460548C8
:10283000FDF775FE00BF5037BD4680BD0000024069
:10284000000800400004004880B400AF044BDB687F
:102850001B0A03F007031846BD465DF8047B70476A
:1028600000ED00E080B483B000AF0346FB7197F940
:102870000730002B0BDBFB7903F01F02074997F9A8
:1028800007305B09012000FA02F241F8232000BF63
:102890000C37BD465DF8047B704700BF00E100E0E7
:1028A00080B483B000AF03463960FB7197F90730FD
:1028B000002B0ADB3B68DAB20C4997F907301201AA
:1028C000D2B20B4483F800230AE03B68DAB208492D
:1028D000FB7903F00F03043B1201D2B20B441A76CA
:1028E00000BF0C37BD465DF8047B704700E100E097
:1028F00000ED00E080B489B000AFF860B9607A60A4
:10290000FB6803F00703FB61FB69C3F10703042BBA
:1029100028BF0423BB61FB690433062B02D9FB6982
:10292000033B00E000237B614FF0FF32BB6902FAFA
:1029300003F3DA43BB681A407B699A404FF0FF31DA
:102940007B6901FA03F3D9437B680B4013431846B4
:102950002437BD465DF8047B7047000080B485B025
:1029600000AF7860084B5A6907497B6813434B6195
:10297000054B5A697B681340FB60FB6800BF143746
:10298000BD465DF8047B70470010024080B485B0FE
:1029900000AF7860084BDA6907497B681343CB6165
:1029A000054BDA697B681340FB60FB6800BF143796
:1029B000BD465DF8047B70470010024080B483B0D0
:1029C00000AF78607B681B6843F001027B681A6087
:1029D00000BF0C37BD465DF8047B704780B483B000
:1029E00000AF78607B685B6823F490427B685A6034
:1029F0007B689B6823F02A027B689A6000BF0C37D3
:102A0000BD465DF8047B704780B489B000AF786044
:102A10007B68FB60FB6853E8003FBB60BB6843F02A
:102A20002003FB617B68FA69BA617B617969BA69E5
:102A300041E800233B613B69002BE9D100BF00BFA7
:102A40002437BD465DF8047B704780B489B000AF81
:102A500078607B680833FB60FB6853E8003FBB602D
:102A6000BB6823F48063FB617B680833FA69BA6151
:102A70007B617969BA6941E800233B613B69002BBE
:102A8000E7D100BF00BF2437BD465DF8047B704727
:102A900080B483B000AF78607B689B6823F40052F9
:102AA0007B689A6000BF0C37BD465DF8047B7047B9
:102AB00080B58EB000AF07F11C0300221A605A6087
:102AC0009A60DA601A615A619A613B1D00221A60AD
:102AD0005A609A60DA601A615A614FF40030FFF769
:102AE00055FF4FF40030FFF739FF0C237B600223C2
:102AF000BB600323FB6000233B6100237B61072352
:102B0000BB613B1D19464FF09040FDF708FDFFF7F4
:102B10009BFE0346002200211846FFF7EBFE03460A
:102B200019462620FFF7BCFE2620FFF79BFE144B1C
:102B3000FB6100233B6200237B620023BB620C230A
:102B4000FB6200233B634FF400437B6307F11C03EC
:102B500019460C48FEF75EFD0A48FFF776FF094864
:102B6000FFF796FF0748FFF739FF0648FFF726FFF4
:102B70000448FFF749FF00BF3837BD4680BD00BF9E
:102B800060E316000044004080B483B000AF78607A
:102B90007B68DB6903F02003202B01D1012300E0D7
:102BA000002318460C37BD465DF8047B704780B49F
:102BB00083B000AF78607B681B6803F02003202B94
:102BC00001D1012300E0002318460C37BD465DF813
:102BD000047B704780B483B000AF78607B689B8CC7
:102BE0009BB2DBB218460C37BD465DF8047B7047DC
:102BF00080B400AF00BFFDE780B400AF00BFFDE7C9
:102C000080B400AF00BFFDE780B400AF00BFFDE7B8
:102C100080B400AF00BFFDE780B400AF00BFBD4689
:102C20005DF8047B704780B400AF00BFBD465DF81F
:102C3000047B704780B400AF00BFBD465DF8047BE5
:102C4000704780B400AF00BFBD465DF8047B70479D
:102C500080B400AF00BFBD465DF8047B704780B410
:102C600000AF00BFBD465DF8047B704780B500AF84
:102C70000A48FFF789FF0346002B0CD00748FFF7EF
:102C800096FF0346002B06D00448FFF7A3FF034638
:102C9000184601F0E5FA00BF80BD00BF00440040C7
:102CA00080B586B000AF7860144A154BD31A7B61AB
:102CB0007B693B61134B1B68002B02D1114B124AFD
:102CC0001A60104B1A687B6813443A699A4207D21B
:102CD00002F01EF803460C221A604FF0FF3309E0A1
:102CE000084B1B68FB60074B1A687B681344054A56
:102CF0001360FB6818461837BD4680BD00000120F0
:102D0000000400008C00002000490020DFF834D0CF
:102D1000FDF7B6FA0C480D490D4A002302E0D458DD
:102D2000C4500433C4188C42F9D30A4A0A4C002315
:102D300001E013600432A242FBD301F0EFFFFEF783
:102D4000DBFEFEE7000001200000002070000020F4
:102D5000645700087000002000490020FEE70000D2
:102D600080B500AF4FF480420021044801F0C8FF55
:102D7000034B00221A8000BF80BD00BF94000020DA
:102D80009444002080B500AF4FF4806200210448D5
:102D900001F0B6FF034B00221A8000BF80BD00BFC8
:102DA000944000209644002080B400AF024B1846A7
:102DB000BD465DF8047B70479400002080B400AFEE
:102DC000024B1846BD465DF8047B704794400020D6
:102DD00080B483B000AF0346FB80104B1B88B3F573
:102DE000005F07D30E4B1B6843F001030C4A1360CE
:102DF00001230DE00B4B1B8819460B4AFB8822F878
:102E00001130084B1B8801339AB2064B1A800023FD
:102E100018460C37BD465DF8047B70479644002089
:102E200090000020944400209400002080B483B0DF
:102E300000AF0346FB80104B1B88B3F5007F07D320
:102E40000E4B1B6843F002030C4A136001230DE094
:102E5000094B1B8819460A4AFB8822F81130064B99
:102E60001B8801339AB2044B1A80002318460C3792
:102E7000BD465DF8047B704796440020900000201A
:102E80009440002080B584B000AF0346FB80FB88EF
:102E9000002B03D0FB88B3F5005F07D90A4B1B68F2
:102EA00043F00403084A1360012308E0FB885B0039
:102EB000FB81FB891946054801F006FA00231846F4
:102EC0001037BD4680BD00BF900000209400002058
:102ED00080B584B000AF0346FB80FB88002B03D095
:102EE000FB88B3F5007F07D90A4B1B6843F0040346
:102EF000084A1360012308E0FB885B00FB81FB8923
:102F00001946054801F0E0F9002318461037BD4680
:102F100080BD00BF900000209440002080B400AF2E
:102F2000034B1B681846BD465DF8047B704700BF25
:102F30009844002080B400AF034B00221A6000BF09
:102F4000BD465DF8047B70479844002080B400AF14
:102F5000054B1B6843F00203034A136000BFBD46E4
:102F60005DF8047B704700BF9844002080B400AF38
:102F7000054B1B6843F01003034A136000BFBD46B6
:102F80005DF8047B704700BF9844002080B400AF18
:102F9000054B1B6843F02003034A136000BFBD4686
:102FA0005DF8047B704700BF9844002080B400AFF8
:102FB000054B1B6843F48073034A136000BFBD4692
:102FC0005DF8047B704700BF9844002080B487B050
:102FD00000AFF860B9601346FB80FB68002B02D09D
:102FE000BB68002B07D12D4B1B6843F001032B4A14
:102FF000136001234CE0FB880C2B07D0274B1B6888
:1030000043F00403254A1360012341E0FB680B33BE
:103010001B78212B07D0214B1B6843F008031F4A64
:103020001360012334E0FB681A78BB681A70FB68F0
:1030300001331A78BB685A70FB6802331A78BB6890
:103040009A700023FB750CE0FB7D0333FA681A4489
:10305000FB7D1178BA6813440A46DA70FB7D0133B0
:10306000FB75FB7D032BEFD90023BB750CE0BB7D0B
:103070000733FA681A44BB7D1178BA6813440A46CC
:10308000DA71BB7D0133BB75BB7D032BEFD9002308
:1030900018461C37BD465DF8047B704798440020F5
:1030A00080B485B000AF786039607B68002B02D0B7
:1030B0003B68002B07D12A4B1B6843F00103284AC9
:1030C0001360012345E00023FB8100237B7339E07B
:1030D0007B7B7A6813441B78FB72FB7A2F2B06D913
:1030E000FB7A392B03D8FB7A303B3B731EE0FB7A2B
:1030F000402B06D9FB7A462B03D8FB7A373B3B7330
:1031000014E0FB7A602B06D9FB7A662B03D8FB7A96
:10311000573B3B730AE0124B1B6843F08003104A95
:1031200013603B6800221A80012312E0B7F90E30C9
:103130001B011AB23B7B1BB213431BB2FB817B7B8F
:1031400001337B737B7B032BC2D93B68FA891A80DE
:10315000002318461437BD465DF8047B704700BF56
:103160009844002080B483B000AF03463960FB71FF
:103170003B68002B07D11F4B1B6843F001031D4A1E
:10318000136001232FE0FB792F2B08D9FB79392B12
:1031900005D8FB79303BDAB23B681A7022E0FB7944
:1031A000402B08D9FB79462B05D8FB79373BDAB29F
:1031B0003B681A7016E0FB79602B08D9FB79662B07
:1031C00005D8FB79573BDAB23B681A700AE0094B25
:1031D0001B6843F08003074A13603B68FF221A70A4
:1031E000012300E0002318460C37BD465DF8047B40
:1031F000704700BF9844002080B485B000AF78606D
:10320000084B5A6907497B6813434B61054B5A6960
:103210007B681340FB60FB6800BF1437BD465DF858
:10322000047B70470010024080B400AF034B1B6862
:103230001846BD465DF8047B704700BF9C440020E3
:1032400080B400AF034B00221A6000BFBD465DF89A
:10325000047B70479C44002080B588B000AF396083
:1032600011461A460346FB710B46BB7113467B7130
:10327000FB79052B07D9434B1B6843F00203414AF6
:10328000136001237AE03B68002B03D03B68B3F561
:10329000803F07D33B4B1B6843F00403394A13605C
:1032A00001236BE0BB79032B07D9364B1B6843F036
:1032B0000803344A1360012360E07B79022B07D9AD
:1032C000304B1B6843F010032E4A1360012355E076
:1032D00097F82830012B07D92A4B1B6843F02003AD
:1032E000284A1360012349E097F82C30022B07D9B4
:1032F000244B1B6843F04003224A136001233DE046
:10330000FB79214A52F823301846FFF775FF07F181
:10331000080300221A605A609A60DA601A615A61E2
:103320003B68BB60BB79194A52F82330FB607B795C
:10333000174A52F823303B6197F82830154A52F863
:1033400023307B6197F82C30134A52F82330BB614D
:10335000FB79124A52F8233007F108021146184649
:10336000FDF7DDF80346002B07D0064B1B6843F43E
:103370008073044A1360012300E0002318462037BD
:10338000BD4680BD9C440020C8560008E056000899
:10339000F0560008FC56000804570008B056000814
:1033A00080B483B000AF03463960FB711346BB7134
:1033B000FB79052B07D91A4B1B6843F00203184A07
:1033C0001360012326E03B68002B03D03B68B3F574
:1033D000803F07D3124B1B6843F00403104A13606D
:1033E000012317E0BB79012B07D90D4B1B6843F074
:1033F00080030B4A136001230CE0BB79002B02D140
:103400003B681B0400E03B68FA79064951F822202A
:103410009361002318460C37BD465DF8047B704766
:103420009C440020B056000880B483B000AF03462F
:103430003960FB71FB79052B07D9154B1B6843F0ED
:103440000203134A136001231BE03B68002B03D0E7
:103450003B68B3F5803F07D30D4B1B6843F0040373
:103460000B4A136001230CE0FB790A4A52F823301F
:103470005969FB79074A52F823303A684A405A6141
:10348000002318460C37BD465DF8047B704700BF2B
:103490009C440020B056000880B485B000AF0346BD
:1034A000B9607A60FB737B68002B07D11A4B1B68ED
:1034B00043F00103184A1360012326E0FB7B052B30
:1034C00007D9154B1B6843F00203134A136001230D
:1034D0001BE0BB68002B03D0BB68B3F5803F07D36C
:1034E0000D4B1B6843F004030B4A136001230CE0EF
:1034F000FB7B0A4A52F823301B699AB2BB689BB225
:1035000013409AB27B681A80002318461437BD46D0
:103510005DF8047B704700BF9C440020B056000853
:1035200080B483B000AF786039603B68013B0B4AE0
:10353000D35C1A467B6813441B683A68013A074912
:103540008A5C11467A680A4443F00103136000BFA5
:103550000C37BD465DF8047B704700BF105700086C
:1035600080B483B000AF786039603B68013B0B4AA0
:10357000D35C1A467B6813441B683A68013A0749D2
:103580008A5C11467A680A4423F00103136000BF85
:103590000C37BD465DF8047B704700BF105700082C
:1035A00080B485B000AFF860B9607A60BB68013B59
:1035B0000C4AD35C1A46FB6813441B6823F0800254
:1035C000BB68013B0749CB5C1946FB680B441946B5
:1035D0007B6813430B6000BF1437BD465DF8047B66
:1035E000704700BF1057000880B485B000AFF86086
:1035F000B9607A60BB68013B0C4AD35C1A46FB6831
:1036000013445B681B0C1B04BA68013A07498A5CC7
:103610001146FA680A4411467A6813434B6000BFAA
:103620001437BD465DF8047B704700BF1057000893
:1036300080B485B000AFF860B9607A60BB68013BC8
:10364000064AD35C1A46FB6813441A467B68D3606B
:1036500000BF1437BD465DF8047B70471057000863
:1036600080B485B000AFF860B9607A60BB68013B98
:10367000064AD35C1A46FB6813441A467B6893607B
:1036800000BF1437BD465DF8047B70471057000833
:1036900080B483B000AF78607B681B6803F02003C0
:1036A000202B0CBF01230023DBB218460C37BD468C
:1036B0005DF8047B704780B483B000AF78607B68AE
:1036C00010225A6000BF0C37BD465DF8047B70477E
:1036D00080B483B000AF78607B684FF480325A606A
:1036E00000BF0C37BD465DF8047B704780B483B0E3
:1036F00000AF78607B6820225A6000BF0C37BD465F
:103700005DF8047B704780B483B000AF78607B685D
:103710004FF400325A6000BF0C37BD465DF8047BA1
:10372000704780B483B000AF78607B6840225A60F5
:1037300000BF0C37BD465DF8047B704780B483B092
:1037400000AF78607B684FF480225A6000BF0C376E
:10375000BD465DF8047B704780B483B000AF7860ED
:103760007B6880225A6000BF0C37BD465DF8047B41
:10377000704780B483B000AF78607B684FF400225C
:103780005A6000BF0C37BD465DF8047B704780B4BB
:1037900083B000AF78607B681B6843F040027B68B1
:1037A0001A6000BF0C37BD465DF8047B704780B4DB
:1037B00083B000AF78607B681B6823F040027B68B1
:1037C0001A6000BF0C37BD465DF8047B704780B4BB
:1037D00083B000AF786039607B681B6823F001021A
:1037E0003B681A437B681A6000BF0C37BD465DF822
:1037F000047B704780B483B000AF786039607B6829
:103800001B6823F002023B681A437B681A6000BF02
:103810000C37BD465DF8047B704780B483B000AFC1
:10382000786039607B681B6823F038023B681A4374
:103830007B681A6000BF0C37BD465DF8047B70479B
:1038400080B483B000AF786039607B681B6823F078
:1038500080023B681A437B681A6000BF0C37BD4684
:103860005DF8047B704780B483B000AF7860396046
:103870007B685B6823F470623B681A437B685A601C
:1038800000BF0C37BD465DF8047B704780B483B041
:1038900000AF78607B689B6803F00103012B01D1C6
:1038A000012300E0002318460C37BD465DF8047B79
:1038B000704780B485B000AF78607B68DB68FB60E0
:1038C000FB687B689B68FB60FB6800BF1437BD46E4
:1038D0005DF8047B704780B483B000AF78607B688C
:1038E0005B6843F001027B685A6000BF0C37BD463D
:1038F0005DF8047B704780B483B000AF78607B686C
:103900005B6823F001027B685A6000BF0C37BD463C
:103910005DF8047B704780B483B000AF78607B684B
:10392000DB689BB218460C37BD465DF8047B7047D8
:1039300080B483B000AF78607B681B6843F00102FD
:103940007B681A6000BF0C37BD465DF8047B70478A
:1039500080B483B000AF78607B681B6823F00102FD
:103960007B681A6000BF0C37BD465DF8047B70476A
:1039700080B483B000AF786039607B683A685A627F
:1039800000BF0C37BD465DF8047B704780B483B040
:1039900000AF786039607B683A68DA6200BF0C3744
:1039A000BD465DF8047B704780B483B000AF78609B
:1039B00039607B681A6A3B681A437B681A6200BFE9
:1039C0000C37BD465DF8047B704780B483B000AF10
:1039D000786039607B681A6A3B68DB431A407B6811
:1039E0001A6200BF0C37BD465DF8047B70470000CB
:1039F00080B487B000AFF860B9607A60BB68012B13
:103A000028D0BB68042B23D0BB68102B1ED0BB680A
:103A1000402B19D0BB68B3F5807F13D0BB68B3F5DA
:103A2000806F0DD0BB68B3F5805F07D0BB68B3F57E
:103A3000803F01D107230EE008230CE006230AE0B3
:103A4000052308E0042306E0032304E0022302E048
:103A5000012300E00023FB75FB681A6AFB7D0B491C
:103A6000CB5C194602238B40DB431A40FB7D0749A0
:103A7000CB5C19467B688B401A43FB681A6200BF17
:103A80001C37BD465DF8047B704700BF185700081F
:103A900080B483B000AF786039607B683A685A635D
:103AA00000BF0C37BD465DF8047B704780B483B01F
:103AB00000AF786039607B683A68DA6300BF0C3722
:103AC000BD465DF8047B704780B483B000AF78607A
:103AD0007B685B6C43F400427B685A6400BF0C3720
:103AE000BD465DF8047B704780B483B000AF78605A
:103AF0007B685B6C23F400427B685A6400BF0C3720
:103B0000BD465DF8047B704780B483B000AF786039
:103B10007B686FF008021A6100BF0C37BD465DF884
:103B2000047B704780B483B000AF78607B68DB684B
:103B300043F400627B68DA6000BF0C37BD465DF875
:103B4000047B704780B483B000AF78607B68DB682B
:103B500023F400627B68DA6000BF0C37BD465DF875
:103B6000047B704780B586B000AF3B4600221A60E8
:103B70005A609A60DA601A615A6140233B600323FD
:103B80007B603B4619460348FCF7C9FC00BF183769
:103B9000BD4680BD00040048B0B586B000AF094BFB
:103BA0003C461D460FCD0FC495E8030084E8030092
:103BB0003B4619460448FCF7B2FC00BF1837BD4627
:103BC000B0BD00BF145600080004004880B485B0A2
:103BD00000AF0346FB80FB88064A92FBF3F39BB2DF
:103BE000013BFB81FB8918461437BD465DF8047B19
:103BF000704700BF4019010080B500AF0B48FFF7C8
:103C0000A7FE00210948FFF7B3FE01210748FFF78F
:103C1000CBFE4FF480710548FFF7C6FE0348FFF75F
:103C200053FF0248FFF784FE00BF80BD000800403C
:103C300080B500AF0A48FFF78BFE0948FFF754FF35
:103C400001210748FFF7C1FE4FF480710448FFF7D8
:103C5000BCFE00210248FFF78BFE00BF80BD00BF05
:103C60000008004080B500AF0F48FFF724FD0E4864
:103C7000FFF73CFD0C48FFF754FD0B48FFF76CFDC8
:103C80000948FFF725FD0848FFF73DFD0648FFF707
:103C900055FD0548FFF76DFD0448FFF735FF044863
:103CA000FFF707FE00BF80BD000002400008004093
:103CB0000030014080B400AF034B1B681846BD467E
:103CC0005DF8047B704700BFA044002080B400AFC3
:103CD000034B00221A6000BFBD465DF8047B7047AD
:103CE000A044002080B582B000AF0346FB80FB8873
:103CF000012B03D9FB88B3F5487F07D90A4B1B6812
:103D000043F00203084A1360012308E0FB881846C9
:103D1000FFF75CFF03461A46044B9A8200231846BD
:103D20000837BD4680BD00BFA0440020040000202D
:103D300090B482B000AF0446084611461A462346A6
:103D4000FB710346BB710B467B7113463B71FB79DC
:103D5000022B02D9FB790F2B07D9804B1B6843F04C
:103D600080037E4A13600123F2E0BB79012B07D95F
:103D70007A4B1B6843F48073784A13600123E7E0B1
:103D80007B79062B07D9754B1B6843F40073734A84
:103D900013600123DCE03B79012B07D96F4B1B68D3
:103DA00043F480636D4A13600123D1E03B7C022B16
:103DB00007D96A4B1B6843F40063684A1360012308
:103DC000C6E0BB8AB3F5805F07D3644B1B6843F042
:103DD0000403624A13600123BAE0FB79033B0C2B16
:103DE0005DD801A252F823F01D3E0008273E0008CE
:103DF000313E00083B3E0008453E00084F3E0008AB
:103E0000593E0008633E00086D3E0008773E0008FA
:103E1000813E00088B3E0008953E0008504B4FF451
:103E200040721A603FE04E4B4FF480621A603AE0F5
:103E30004B4B4FF4A0621A6035E0494B4FF4C0621F
:103E40001A6030E0464B4FF4E0621A602BE0444BBE
:103E50004FF400621A6026E0414B4FF410621A6082
:103E600021E03F4B4FF420621A601CE03C4B4FF4C2
:103E700030621A6017E03A4B4FF440621A6012E069
:103E8000374B4FF450621A600DE0354B4FF46062CF
:103E90001A6008E0324B4FF470621A6003E0304B56
:103EA0004FF470621A60BB79002B03D12C4B0022B7
:103EB0005A6002E02A4B80225A607B79062B2DD86B
:103EC00001A252F823F000BFE53E0008ED3E0008D5
:103ED000F53E0008FD3E0008053F00080D3F0008C4
:103EE000153F00081E4B08229A6017E01C4B102259
:103EF0009A6013E01A4B18229A600FE0184B2022A8
:103F00009A600BE0164B28229A6007E0144B30228F
:103F10009A6003E0124B38229A6000BF3B79002B75
:103F200003D10F4B0022DA6002E00D4B0222DA606F
:103F30003B7C012B03D10A4B00221A6102E0084BA3
:103F400001221A61BB8A01339AB2054BDA8200233F
:103F500018460837BD4690BC704700BFA0440020FB
:103F60000400002080B483B000AF03460A46FB8003
:103F700013467B71FB88002B04D0174B9B8AFA8871
:103F80009A4207D3154B1B6843F00803134A13608A
:103F900001231AE07B79012B07D9104B1B6843F0F2
:103FA00010030E4A136001230FE0FB88013B9AB215
:103FB000094B1A837B79002B03D1074B02229A7697
:103FC00002E0054B00229A76002318460C37BD46C6
:103FD0005DF8047B704700BF04000020A04400206F
:103FE00080B500AFFEF77CFBFEF792F81C4B9B8A76
:103FF00019461C48FFF7CAFC194B1B8B1946194878
:10400000FFF746FD164B9B7E1A4601211548FFF728
:10401000EFFC134BDB8A19461248FFF747FD104BA4
:104020001B6819461048FFF71EFC0D4B5B681946CC
:104030000D48FFF705FC0A4B9B6819460A48FFF735
:10404000ECFB074BDB6819460748FFF7D3FB044B33
:104050001B6919460448FFF7BAFB00BF80BD00BFCB
:1040600004000020000800400030014080B584B00A
:1040700000AF03460A46FB8013467B71FB88002B8A
:1040800003D0FB88B3F5005F07D94B4B1B6843F0A7
:104090004003494A136001238AE0FFF7C9FD4748FE
:1040A000FFF750FD4648FFF726FC4548FFF77FFB2A
:1040B00005214448FFF754FA02214248FFF750FA1D
:1040C000FFF7D0FD02E03E48FFF725FC3C48FFF734
:1040D000DDFB0346002BF6D17B79002B01D080233A
:1040E00000E000231A4605213648FFF759FAFEF78B
:1040F00065FE03461A4605213248FFF799FA324A0F
:1041000005213048FFF7ACFAFB881A4605212D48F7
:10411000FFF76AFAFEF748FE03461A4602212948CD
:10412000FFF786FA284A02212648FFF799FAFB880A
:104130001A4602212348FFF757FA2148FFF727FBC9
:1041400002212048FFF7ECF91D48FFF7C4FB0521C9
:104150001C48FFF7E5F91948FFF7E4FCFFF71CFDE1
:10416000FFF74AFD00BF1748FFF792FA0346002BFE
:10417000F9D0FFF75DFD1148FFF7E4FC1048FFF7A9
:10418000BAFB0F48FFF713FB05210E48FFF7E8F9CC
:1041900002210C48FFF7E4F9FFF764FD084BDB68E8
:1041A000FB60074B9B68FB60FB68FFF7DBFC0023B1
:1041B00018461037BD4680BDA044002000080040CE
:1041C00000300140000002400C30014080B483B058
:1041D00000AF78607B68DB6903F04003402B01D1BE
:1041E000012300E0002318460C37BD465DF8047B30
:1041F000704780B483B000AF78607B68DB6903F000
:104200008003802B01D1012300E0002318460C37E6
:10421000BD465DF8047B704780B483B000AF786022
:104220000B46FB70FB789AB27B681A8500BF0C378F
:10423000BD465DF8047B704780B500AF4FF48072D7
:104240000021064800F05CFD044B0022A3F8002189
:10425000024B0022A3F8022100BF80BDA44400202D
:1042600080B485B000AF0346FB71164BB3F8003144
:104270009BB201339BB2DBB2FB81124BB3F802312C
:104280009BB2FA899A420AD10E4BB3F802319BB223
:1042900001339BB2DBB29AB20A4BA3F80221094B5D
:1042A000B3F800319BB21946064AFB795354054ACC
:1042B000FB89A2F8003100BF1437BD465DF8047BCE
:1042C000704700BFA444002080B584B000AF786080
:1042D0000B467B800023FB8111E000BF1048FFF7F5
:1042E00088FF0346002BF9D0FB897A6813441B78BA
:1042F00019460B48FFF790FFFB890133FB81FA89D0
:104300007B889A42E9D300BF0548FFF75FFF034669
:10431000002BF9D000BF00BF1037BD4680BD00BFE5
:104320000044004080B483B000AF0023FB80174BF3
:10433000B3F800319AB2154BB3F802319BB29A42EE
:104340000AD3124BB3F800319AB2104BB3F80231D2
:104350009BB2D31AFB800CE00C4BB3F800319AB23D
:104360000A4BB3F802319BB2D31A9BB203F58073A8
:10437000FB80FB880D2B01D8002300E001231846A9
:104380000C37BD465DF8047B704700BFA444002095
:1043900080B485B000AF78600B467B800023FB8142
:1043A000454BB3F80031BB817B88002B06D0424BD4
:1043B000B3F802319BB2BA899A4262D17B88002B52
:1043C00002D07B6800221A7000236EE03A4BB3F8EB
:1043D00002319BB21A46384B9B5CFB72FB7A0D2B69
:1043E00002D0FB7A0A2B35D1334BB3F802319BB2A2
:1043F00001339BB2DBB29AB22F4BA3F802212E4BB2
:10440000B3F80031BB812C4BB3F802319BB2BA89AF
:104410009A4243D0284BB3F802319BB21A46264B3E
:104420009B5CBB72FB7A0D2B02D1BB7A0A2B05D0A9
:10443000FB7A0A2B32D1BB7A0D2B2FD11E4BB3F84E
:1044400002319BB201339BB2DBB29AB21A4BA3F892
:10445000022123E0FB897A681344FA7A1A70164B1A
:10446000B3F802319BB201339BB2DBB29AB2124B6A
:10447000A3F80221FB890133FB810F4BB3F8003114
:10448000BB81FA897B88013B9A4208DA0A4BB3F870
:1044900002319BB2BA899A4298D100E000BFFB89F1
:1044A0007A68134400221A70FB8918461437BD46F7
:1044B0005DF8047B704700BFA444002080B58CB039
:1044C00000AF07F1180300221A605A609A60DA60A0
:1044D0001A615A614023BB610323FB6107F1180392
:1044E00019460D48FCF71BF83B4600221A605A603B
:1044F0009A60DA601A615A61E0233B6003237B60B3
:104500003B4619464FF09040FCF709F8FFF794FE40
:1045100000BF3037BD4680BD0004004880B584B080
:1045200000AF0346FB71FB79032B34D0032B49DC2E
:10453000002B02D0022B17D044E0FEF7EFFCF8600E
:10454000FB68234A4FF48071224800F0A3FB034626
:104550009AB2214B1A80204B1B8819461D48FFF741
:10456000B3FEFEF7E7FC2EE0FEF75EFEF860FB68A8
:104570001A4A4FF48071174800F08CFB03469AB238
:10458000154B1A80144B1B8819461248FFF79CFEE6
:10459000FEF756FE17E0FFF78DFBF860FB68104A48
:1045A0004FF480710B4800F075FB03469AB20A4B3A
:1045B0001A80094B1B8819460648FFF785FEFFF74E
:1045C00085FB00E000BF00BF1037BD4680BD00BFC7
:1045D0002C560008A8450020A84700203C5600089B
:1045E0005056000880B582B000AF03460A46FB7102
:1045F0001346BB71FB79012B03D1BB791846FFF73A
:104600008DFF00BF0837BD4680BD0000B0B590B03B
:1046100002AFFFF753FFFFF785FE0346002BFAD0EA
:104620004FF48071CA48FFF7B3FE03461A46C94BE0
:104630001A80C84B1B881A46C749C548FEF7C6FCF6
:104640000346002B40F00F83C34B1B78303B092BF4
:1046500000F2038301A252F823F000BF8546000850
:104660008547000877480008FF4800087D49000892
:104670008949000895490008A1490008F94B00083C
:10468000134C0008B44B5B78302B37D1B24B9B787E
:1046900007F1370211461846FEF764FD0346002174
:1046A0001846FFF79FFF07F134031946AB48FEF7A2
:1046B000F7FC034600211846FFF794FF97F83730C0
:1046C000BA8E114607F132021846FEF7E5FE0346A0
:1046D00002211846FFF786FF7B8EA14A4FF48071B6
:1046E000A04800F0D7FA03469AB29F4B1A809E4B1F
:1046F0001B8819469B48FFF7E7FDBAE2964B5B78AB
:10470000352B39D1002387F831300023FB85924BBC
:104710009B7807F1310211461846FEF723FD034648
:1047200000211846FFF75EFF07F12E0319468B485C
:10473000FEF7B6FC034600211846FFF753FF97F833
:104740003130002B09D1FB8D1846FEF79BFB034649
:1047500004211846FFF746FF8BE297F83130012B12
:1047600040F08782FB8D1846FEF7B2FB034604211A
:104770001846FFF737FF7CE2FEF708FC0020FFF742
:10478000CDFE76E2744B5B78302B33D1724B9B7845
:1047900007F12D0211461846FEF7E4FC03460021FE
:1047A0001846FFF71FFF07F12A0319466B48FEF76B
:1047B00077FC034600211846FFF714FF664BDB79B0
:1047C00007F12C0211461846FEF7CCFC03460021E7
:1047D0001846FFF707FF97F82D307A8D114697F8A6
:1047E0002C201846FEF7DCFD034602211846FFF791
:1047F000F9FE40E2584B5B78332B36D100233B85E2
:104800000023FB8407F1280319465448FEF748FCAF
:10481000034600211846FFF7E5FE07F12603194677
:104820005248FEF73DFC034600211846FFF7DAFE2A
:10483000FB8C012B0AD13B8D01211846FFF716FC9A
:10484000034603211846FFF7CDFE14E2FB8C002B34
:1048500040F011823B8D00211846FFF707FC03460C
:1048600003211846FFF7BEFE05E2FEF78FFB00208E
:10487000FFF754FEFFE1384B5B78352B39D100232D
:1048800087F8253000237B84334B9B7807F1250282
:1048900011461846FEF766FC034600211846FFF74E
:1048A000A1FE07F1220319462C48FEF7F9FB034647
:1048B00003211846FFF796FE97F82530002B09D103
:1048C0007B8C1846FEF784FA034604211846FFF74E
:1048D00089FED2E197F82530012B40F0CE817B8C08
:1048E0001846FEF7A3FA034604211846FFF77AFE9E
:1048F000C3E1FEF74BFB0020FFF710FEBDE1164BB6
:104900005B78302B34D1144B9B7807F12102114690
:104910001846FEF727FC034600211846FFF762FE03
:1049200007F11E0319460D48FEF7BAFB03460021A6
:104930001846FFF757FE97F82130FA8B11461846B4
:10494000FEF772FD034602211846FFF74BFE99E180
:10495000A8460020AA470020AC470020AF4700200F
:1049600068560008A8450020A8470020B34700204B
:10497000FEF70CFB0020FFF7D1FD83E1FEF716FBED
:104980000020FFF7CBFD7DE1FEF710FB0020FFF7D5
:10499000C5FD77E1FEF70AFB0020FFF7BFFD71E1DF
:1049A000B94B5B78302B5FD1B74B9B7807F11D0279
:1049B00011461846FEF7D6FB034600211846FFF7BE
:1049C00011FE07F116031946B048FEF769FB0346CE
:1049D00000211846FFF706FEAB4BDB7907F11C02FE
:1049E00011461846FEF7BEFB034600211846FFF7A6
:1049F000F9FDA54B1B7A07F11B0211461846FEF77D
:104A0000B1FB034600211846FFF7ECFD9E4B5B7A95
:104A100007F11A0211461846FEF7A4FB03460021CF
:104A20001846FFF7DFFD984B9B7A07F119021146F4
:104A30001846FEF797FB034600211846FFF7D2FD04
:104A4000787FFB8A1D46397FFC7EBB7E7A7E019291
:104A5000009323460A462946FEF7FEFB0346022141
:104A60001846FFF7BFFD0AE1874B5B78332B40F018
:104A7000928000237B75844B9B7807F115021146C9
:104A80001846FEF76FFB034600211846FFF7AAFD04
:104A90007B7D002B16D100237B8207F11203194680
:104AA0007A48FEF7FDFA034600211846FFF79AFD03
:104AB0007B8A1846FFF716F9034603211846FFF7CD
:104AC00091FDDCE07B7D012B40F0D98000237B73DE
:104AD00000237B816C4BDB7807F1110211461846ED
:104AE000FEF740FB034600211846FFF77BFD664BAF
:104AF0001B7907F1100211461846FEF733FB0346F7
:104B000000211846FFF76EFD5F4B5B7907F10F023E
:104B100011461846FEF726FB034600211846FFF70C
:104B200061FD594B9B7907F10E0211461846FEF7BD
:104B300019FB034600211846FFF754FD524BDB7961
:104B400007F10D0211461846FEF70CFB0346002143
:104B50001846FFF747FD4C4B3022DA7107F10A0384
:104B600019464B48FEF79CFA034600211846FFF70A
:104B700039FD787C397CFC7BBD7B7B7B7A8901921B
:104B800000932B462246FFF7D3F803460021184630
:104B9000FFF728FD73E03C4B5B78342B26D10023D4
:104BA0007B720023FB80384B9B7A07F10902114688
:104BB0001846FEF7D7FA034600211846FFF712FD04
:104BC000BB1D19463148FEF76BFA03460021184613
:104BD000FFF708FDFB887A7A11461846FFF7C2F9FD
:104BE000034603211846FFF7FDFC48E0FEF7CEF927
:104BF0000020FFF793FC42E0234B5B78332B02D17C
:104C0000FFF7EEF93EE0FEF7C1F90020FFF786FC62
:104C100038E01D4B5B78352B19D100237B711A4B83
:104C20009B787A1D11461846FEF79CFA0346002130
:104C30001846FFF7D7FC7B79002B02D1FEF790F8DE
:104C40001FE07B79012B1CD1FEF79CF819E0FEF7E1
:104C50009DF90020FFF762FC13E0FEF787F90020C2
:104C6000FFF75CFC0EE0FEF771F90020FFF756FC41
:104C7000D1E400BFCFE400BFCDE400BFCBE400BF70
:104C8000C9E400BFC7E400BFAC470020AF47002025
:104C9000B34700200CB430B5184B0C1E1D689DB0F6
:104CA00008DA8B232B604FF0FF301DB0BDE8304099
:104CB00002B070474FF40273ADF814304FF00003A8
:104CC0001B9314BF04F1FF332346049307934FF65D
:104CD000FF7302900690ADF81630209A21AB02A91E
:104CE0002846019300F094F9431CBCBF8B232B6032
:104CF000002CDAD0029B00221A70D6E72000002098
:104D000002440346934200D1704703F8011BF9E7C0
:104D1000014B1868704700BF2000002070B50D4D92
:104D20000D4C641BA4100026A64209D10B4D0C4C5F
:104D300000F064FC641BA4100026A64205D170BDDF
:104D400055F8043B98470136EEE755F8043B984781
:104D50000136F2E75C5700085C5700085C57000812
:104D6000605700087047704738B50546002941D0A4
:104D700051F8043C0C1F002BB8BFE41800F0E0F819
:104D80001D4A136833B9636014602846BDE8384093
:104D900000F0DCB8A34208D9206821188B4201BF7B
:104DA00019685B6809182160EDE71A465B680BB16A
:104DB000A342FAD911685018A0420BD120680144CF
:104DC000501883421160E0D118685B685360084452
:104DD0001060DAE702D90C232B60D6E7206821188F
:104DE0008B4204BF19685B68636004BF09182160C7
:104DF0005460CAE738BD00BFFC48002070B50F4EB4
:104E00000C463168054611B900F0A4FB306021461C
:104E1000284600F09FFB431C03D14FF0FF3420468F
:104E200070BDC41C24F00304A042F8D0211A284607
:104E300000F090FB0130F2D1EFE700BFF84800200E
:104E40002DE9F843CD1C25F0030508350C2D38BF9E
:104E50000C25002D064601DBA94204D90C23336042
:104E60000020BDE8F883DFF8D48000F069F8D8F8B6
:104E700000301C4644BB29463046FFF7BFFF431CA9
:104E8000044658D1D8F800402746002F43D1002CC3
:104E90004BD023683946304604EB030900F05AFB37
:104EA000814542D121686D1A29463046FFF7A6FF99
:104EB00001303AD023682B442360D8F800305A6878
:104EC00062BBC8F800700FE02268521B20D40B2A86
:104ED00017D96119A342256018BF5960636808BFDC
:104EE000C8F8001062514B60304600F02FF804F112
:104EF0000B00231D20F00700C21A1CBF1B1AA35071
:104F0000AFE76268A3420CBFC8F800205A60EBE725
:104F100023466468AEE73C467F68B6E71A465B689E
:104F2000A342FBD100235360DEE70C2333603046FD
:104F300000F00CF894E70560D6E700BFFC480020BD
:104F40000148FFF70FBF00BFF44800200148FFF7FA
:104F50000ABF00BFF44800202DE9F0478E681F46C5
:104F6000BE420B6882460C4690462DD8B1F90C2003
:104F700012F4906F26D06569096905EB4505A3EB2E
:104F8000010905EBD5757B1C4B446D109D4238BF64
:104F90001D46530527D52946FFF752FF064660B345
:104FA00021694A4600F0E6FAA38923F4906343F0AE
:104FB0008003A381266165614E44A5EB0905266047
:104FC000A5603E46BE4200D93E4620683246414674
:104FD00000F0A6FAA3689B1BA360236833442360F8
:104FE0000020BDE8F0872A4600F0D2FA06460028E5
:104FF000E0D121695046FFF7B7FE0C23CAF8003014
:10500000A38943F04003A3814FF0FF30E9E700009C
:105010002DE9F04F98468B891B069DB007460D463B
:10502000144610D50B6973B94021FFF709FF2860BA
:10503000286130B90C233B604FF0FF301DB0BDE854
:10504000F08F40236B610023099320238DF82930D2
:10505000CDF80C803023DFF89C818DF82A304FF09A
:10506000010923469A4613F8012B0AB1252AF9D1E2
:10507000BAEB040B0BD05B46224629463846FFF7B5
:105080006BFF013000F0A780099A5A4409929AF800
:105090000030002B00F09F8000234FF0FF32CDE95D
:1050A00005230AF1010A049307938DF853301A93EC
:1050B0005446052214F8011B4E48FBF791F8049A58
:1050C000D8B9D00644BF20238DF85330110744BF10
:1050D0002B238DF853309AF800302A2B15D0079ADD
:1050E000544600204FF00A0C214611F8013B303B9A
:1050F000092B4BD9B0B1079214E0A0EB080309FAD1
:1051000003F313430493A246D2E7039B191D1B68C4
:105110000391002BBBBF5B4242F00202079307934F
:10512000B8BF049223782E2B0AD163782A2B32D170
:10513000039B1A1D1B68039243EAE3730234059331
:10514000DFF8C0A0217803225046FBF749F838B1B8
:10515000049BA0EB0A0040228240134301340493D5
:1051600014F8011B24488DF828100622FBF738F8A4
:10517000002836D0214B1BBB039B073323F00703CA
:1051800008330393099B334409936AE70CFB02320B
:105190000C460120A8E700230134059319464FF07F
:1051A0000A0C204610F8012B303A092A03D9002BAB
:1051B000C6D00591C4E70CFB012104460123F0E7AA
:1051C00003AB00932A460E4B04A93846AFF3008088
:1051D000421C0646D6D1AB895B063FF52DAF099838
:1051E0002CE703AB00932A46054B04A9384600F090
:1051F00079F8EDE7215700082B5700080000000060
:10520000594F0008275700082DE9F04716469846E1
:105210008A680B69DDF820909342B8BF134633606B
:1052200091F8432007460C460AB1013333602368E6
:10523000990642BF336802333360256815F00605CE
:1052400006D104F1190AE36832689B1AAB4226DCE6
:1052500094F843302268003B18BF012392062BD4F8
:1052600004F1430241463846C84701301ED0236846
:10527000226903F00603042B02BFE5683368ED1AC8
:10528000A3680CBF25EAE57500259342C4BF9B1AAD
:10529000ED1800261A34B5421AD1002008E0012387
:1052A000524641463846C847013003D14FF0FF30DF
:1052B000BDE8F0870135C6E7E1185A1C302081F8B7
:1052C0004300224494F8451082F843100233C7E7A4
:1052D0000123224641463846C8470130E6D0013610
:1052E000D9E700002DE9FF470F7E0C9E782F9146ED
:1052F00080460C469A4601F1430207D8622F0AD82D
:10530000002F00F0D180582F00F0B88004F1420641
:1053100084F842703AE0A7F16303152BF6D801A197
:1053200051F823F07D530008915300080D530008F5
:105330000D5300080D5300080D5300089153000849
:105340000D5300080D5300080D5300080D530008BD
:105350008F540008BB530008495400080D5300083F
:105360000D530008B15400080D530008BB5300084A
:105370000D5300080D5300085154000833681A1DDE
:105380001B68326004F1420684F8423001239CE03D
:1053900033682068191D3160060601D51D6803E0D9
:1053A0004506FBD5B3F90050002D03DA2D236D42DD
:1053B00084F8433058480A2311E02168336808060E
:1053C00053F8045B02D4490648BFADB26F2F524870
:1053D000336014BF0A230823002184F84310666851
:1053E000A660002E05DB21682E4321F00401216018
:1053F0004BD01646B5FBF3F103FB1157C75D06F81A
:10540000017D2F46BB420D46F4D9082B0BD12368F2
:10541000DF0708D5236961689942DEBF302306F8AB
:10542000013C06F1FF36921B2261CDF800A04B46ED
:1054300003AA21464046FFF7E7FE01304AD14FF06C
:10544000FF3004B0BDE8F087236843F020032360F9
:105450003248782784F84570236831681F0651F870
:10546000045B02D45F0648BFADB23160D90744BFC8
:1054700043F0200323601DB11023ADE72648E9E780
:10548000236823F020032360F6E71646BDE7336860
:1054900025686169181D30602E061B6801D51960EA
:1054A00002E06806FBD51980002323611646BCE79D
:1054B00033681A1D32601E68626800213046FAF7B0
:1054C0008FFE08B1801B606063682361002384F84D
:1054D0004330AAE72369324649464046D047013067
:1054E000ADD023689B0713D4E068039B9842B8BFF4
:1054F0001846A6E70123324649464046D0470130C8
:105500009DD00135E36803995B1AAB42F2DCEBE70F
:10551000002504F11906F5E7325700084357000843
:10552000884210B501EB020402D98442234607D811
:10553000431EA14208D011F8012B03F8012FF8E710
:10554000024401468A4200D110BD13F8014D02F811
:10555000014DF7E738B5064D0023044608462B6099
:10556000FDF79EFB431C02D12B6803B1236038BDBD
:10557000F04800200A44914200F1FF3300D1704707
:1055800010B511F8014B03F8014F9142F9D110BD4C
:105590002DE9F041074614460D4621B9BDE8F0411A
:1055A0001146FFF74DBC2AB9FFF7DEFB254628461A
:1055B000BDE8F08100F01AF88442064602D8B4EB48
:1055C000500FF4D821463846FFF73AFC804608B918
:1055D0004546ECE7B4422246294628BF3246FFF74B
:1055E000C9FF29463846FFF7BFFBF1E751F8043CF5
:1055F000181F002BBCBF0B58C0187047F8B500BF70
:10560000F8BC08BC9E467047F8B500BFF8BC08BCA3
:045610009E467047FB
:105614004000000002000000030000000000000041
:105624000000000002000000434D443D3F3B455252
:10563400523D256C750D0A004750494F3D3F3B458F
:1056440052523D256C750D0A000000005350493D2F
:105654003F3B4552523D256C750D0A00410D0A0031
:10566400420D0A0025640D0A00000000000000003D
:1056740000000000010203040607080900000000FE
:1056840001020304081C3044586C8000081C304498
:10569400586C8000000000000404043C3C0000003E
:1056A4000000080000000800080000000000004896
:1056B4000004004800080048000C0048001000489E
:1056C400001400480000020000000400000008006C
:1056D4000000100000002000000040000000000056
:1056E40001000000020000000300000000000000B0
:1056F40001000000030000000000000001000000A1
:10570400000000000100000002000000081C3044FA
:10571400586C800000020406080A0C1014232D3073
:105724002B2000686C4C00656667454647003031A5
:1057340032333435363738394142434445460030F4
:105744003132333435363738396162636465660023
:085754008CAAFF7F0100000098
:04575C00C50100087B
:04576000A10100089B
:1057640000127A00000F0000000000000800000092
:1057740000000000000000001F1C01004F00020098
:105784002400002000000000B8470020204800202A
:105794008848002000000000000000000000000015
:1057A40000000000000000000000000000000000F5
:1057B40000000000000000000000000000000000E5
:1057C40000000000000000000000000000000000D5
:0400000508002D0DB5
:00000001FF
